:020000041000EA
:1000000000B5324B212058609868022188439860DF
:10001000D860186158612E4B002199600221596106
:100020000121F02299502B49196001219960352056
:1000300000F044F80222904214D00621196600F024
:1000400034F8196E01211966002018661A6600F04E
:100050002CF8196E196E196E052000F02FF8012189
:100060000842F9D1002199601B49196000215960AB
:100070001A491B48016001219960EB211966A021F2
:10008000196600F012F800219960164914480160C1
:100090000121996001BC002800D000471248134993
:1000A000086003C880F30888084703B5996A0420EC
:1000B0000142FBD001200142F8D103BD02B5186610
:1000C0001866FFF7F2FF186E186E02BD00000240BE
:1000D000000000180000070000035F00212200005C
:1000E000F4000018222000A00001001008ED00E03C
:1000F00000000000000000000000000074B24E7A12
:1001000000200420F7010010C3010010C5010010F9
:10011000C1010010C1010010C1010010C101001097
:10012000C1010010C1010010C1010010C701001081
:10013000C1010010C1010010C9010010CB01001065
:10014000CD010010CD010010CD010010CD01001037
:10015000CD010010CD010010CD010010CD01001027
:10016000CD010010CD010010CD010010CD01001017
:10017000CD010010CD010010CD010010CD01001007
:10018000CD010010CD010010CD010010CD010010F7
:10019000CD010010CD010010CD010010CD010010E7
:1001A000CD010010CD010010CD010010CD010010D7
:1001B000CD010010CD010010CD010010CD010010C7
:1001C00000BE00BE00BE00BE00BE00BE00F04BF888
:1001D000103800BEF2EB887190800010C0800010D3
:1001E0003402001090A31AE700202149086006C8D5
:1001F00081F3088810471F48006800282FD10DA4FC
:100200000ECC002902D000F012F8F9E71A491B4A77
:10021000002000E001C19142FCD1194988471949E9
:1002200088471949884700BEFDE701C901C29A42C3
:10023000FBD37047C0800010C00000200C050020D8
:100240000C85001000000420000004200C85001024
:1002500000100420001004200000000070470B482C
:1002600003F08AF90047EFF30580C0B27047000041
:1002700008ED00E0000000D010050020140F002061
:100280007D1B001041050010591C0010575600003E
:1002900006005250ABB36053B87A001006005250BB
:1002A000861C0302C87A0010060052505422A29DF8
:1002B000D87A001005005250DE65F4680C850010F5
:1002C000F8B5C0460448054B10B5834203D0044B33
:1002D000002B00D0984710BD0C0500200C05002015
:1002E0000000000006480749091A8910CB0F591869
:1002F00010B5491003D0044B002B00D0984710BD17
:100300000C0500200C0500200000000010B5074C73
:100310002378002B09D1FFF7D5FF054B002B02D026
:10032000044800E000BF0123237010BD1006002028
:1003300000000000706A0010054B10B5002B03D0C0
:100340000449054800E000BFFFF7CCFF10BDC046E0
:100350000000000014060020706A001010B50400B0
:100360001F2100F03DFA00220021200000F050FA89
:100370000021200000F066FA10BD0000002802D025
:10038000012802D070470248FCE70248FAE7C0465D
:10039000706A0010786A0010012801D10148704786
:1003A0000148FCE7886A0010806A0010304B1A6828
:1003B00001239340002953D0D022120653612D4BC4
:1003C0001A680123934000294ED1D02212065361AE
:1003D000294B1B681B03294A12685340E022D201B3
:1003E0001340274A1360274B04221A60234B1B68D3
:1003F000DB05FBD5214A53680380234B1B681B0395
:1004000012685340E022D20113401D4A13601D4B75
:1004100004221A60194B1B68DB05FBD5174A536889
:1004200043801A4B1B681B0312685340E022D20121
:100430001340134A1360134B04221A600F4B1B68BE
:10044000DB05FBD50D4B5B688380114B1A68D0230D
:100450001B065B68D3401A00012313408371704769
:10046000D02212069361AAE7D02212069361AFE769
:10047000E8030020EC030020F803002000C0044043
:1004800000D0044000E0044054060020F4030020A3
:10049000F003002010B584B001F042F800290BDB16
:1004A00010D1FA21890003F0BBF8194B1B68C01A60
:1004B00009280DD804B010BD164B174A3D21174826
:1004C00001F0CEFBFA229200002303F0EBF8ECE7F8
:1004D0000A330F4A136006F057FA040004F0C8FF0D
:1004E000002801D0002C10D1002005F0EBFE0028E0
:1004F000E0D00922002101A803F0C2FF092301AACC
:100500000421002005F006FFD4E704F0B9FFD1E78D
:1005100060060020946A0010F46A0010B06A0010AF
:1005200010B5040000F0A6F90123A340D022120662
:10053000936201220021200000F06AF910BD000042
:10054000F0B5CE4600B586B004F0DCF8424804F0C1
:100550009DF806F001FA06F01BF9404B1868FFF70A
:10056000DFFF3F4B1868FFF7DBFF3E4B1868FFF7D4
:10057000D7FF3D4B1868FFF7D3FF3C4B1868FFF7D8
:10058000CFFF3B4B1868FFF7CBFF3A4B1868FFF7DC
:10059000C7FF394B1868FFF7C3FF384B1868FFF7E0
:1005A000BFFF374B1868FFF7BBFF364B1868FFF7E4
:1005B000B7FF354B1868FFF7B3FF344C206800F0E5
:1005C00059F92068012423008340D0252D06AB6211
:1005D0000022012100F01CF92D4F386800F04AF983
:1005E0002C4E306800F046F93B6822009A406A625F
:1005F00033689C406C6204F01BF9274B1868FFF7C6
:10060000ADFE264B1868FFF7A9FE254804F03EF81A
:1006100000251DE0002504AC29002000FFF7C6FEE0
:100620002800FFF7ABFE039027886688A3889946C9
:10063000A079FFF7B1FE01904B46009333003A00DA
:100640000399184804F052F805F000FCFFF722FF68
:10065000002DDFD10135DEE72C6B00102C060020C9
:1006600030060020580600205C06002044060020CA
:1006700048060020500600204C06002040060020BE
:1006800034060020380600203C060020F00300203D
:10069000E8030020EC030020FC03002000040020FD
:1006A000506B0010706B001010B5024803F0EEFFA5
:1006B00010BDC046706C001010B5024803F0E6FF94
:1006C00010BDC046AC6C001010B5024803F0DEFF50
:1006D00010BDC046986C001010B5024803F0D6FF5C
:1006E00010BDC046806C001010B5024803F0CEFF6C
:1006F00010BDC046B46B001000207047F8B50F0065
:1007000015001E0006AB1C880F4803F0BFFF390020
:100710000E4803F0EBFF29000D4803F0E7FF25002A
:1007200021000C4803F0E2FF0B4803F0AFFF002468
:10073000A54205DD315D094803F0D8FF0134F7E734
:10074000074803F0A3FFF8BDDC6B0010046C001039
:100750001C6C0010346C0010486C0010606C0010B1
:10076000686C001000487047E86C00100048704743
:10077000FC6C001000487047C46C001070B5002875
:100780000DD0032825D88000134BC558280006F04B
:1007900003F9C0B21F2800D91F2000230EE00E4B22
:1007A00019680E480222023003F070FE012007E0B3
:1007B0005A1CEC5C5100094BCC52D3B29842F7D88A
:1007C00001304000C0239B001843044B18801800E0
:1007D00070BD0020FCE7C046040400207C06002019
:1007E00010B58300084A944663441C684022624066
:1007F000C02414408022520113431C60C000034BEC
:100800009C466044416010BD04C00140004001406E
:1008100080000B4B9C46604400290DD00823002A21
:100820000CD100221343026853400C221340802253
:1008300052011043036070470023F0E70422F1E700
:1008400004C00140002909D18000094B9C46604446
:10085000C0239B0118434023036070478000044B72
:100860009C46604480239B01184340230360F4E7C7
:1008700004C0014010B501238340D02212069362C8
:1008800093610521FFF7ACFF10BD0000EFF310806E
:1008900072B6034B1B68002BFBD0BFF35F8F704712
:1008A0002C0100D0BFF35F8F024B00221A6080F34F
:1008B000108870472C0100D070B505000E001400A0
:1008C000FFF7E4FFF208AA18157807213140012349
:1008D0008B402B4205D1DBB22B431370FFF7E2FFB5
:1008E00070BD3100200001F0D9F9F0B583B00700E8
:1008F000019114001E00FFF7C9FFB4420ED8E208B0
:10090000BA1815780721214001238B402B4201D0D2
:100910000134F2E7DBB22B43137001E0012464429F
:10092000FFF7C0FF002C02DB200003B0F0BD019BED
:10093000002BF9D0089801F0B1F90000034B1B68B7
:1009400002201840431E9841C0B2704700C00640C4
:10095000002307E0054A9A189200BFF35F8F002139
:10096000116001331F2BF5D97047C0464000003499
:10097000054A1078431CDBB21370172B02D9130001
:1009800010221A707047C0461404002000B583B0CE
:100990000100044B00931F2318220348FFF7A5FF13
:1009A00003B000BD606D0010A007002070B5050009
:1009B0000C00062001F088FAC000210002F030FE91
:1009C000C60908D00E4B9E4217D87F23184001302D
:1009D0003400460800E001246C62AE622C358023AE
:1009E0009B011D4300232B60062001F06DFA80005F
:1009F000A101891902F014FE70BD0026014CEBE73D
:100A0000FEFF0000FFFF000000290AD180225200F3
:100A1000054B9C466044434258414000034BC25240
:100A200070470A22F4E7C0460080FCBF4C0C00204F
:100A300070B505000C00062001F046FA00282DD004
:100A4000174B9D4227D08022D203164B1A60164BBB
:100A50001A60164B9B6811009943FAD100212800B7
:100A6000FFF7D2FF21002800FFF7A0FF2C002C3455
:100A7000E96A60224A406E211140802252012243DD
:100A800011600B4B2B6380239B01234310221A60C0
:100A90000323AB6470BD80221204D6E70020F9E77F
:100AA0000080034000E0004000F0004000C0004033
:100AB0000103000070B505000C00080000F024FDE3
:100AC000200000F0F5FD0849200000F035FDFFF79B
:100AD0004FFF064B9C466044800068602C75A40064
:100AE000034BE55070BDC046010E001040000034BD
:100AF000180C00200A4B1A68EFF3108172B61368C5
:100B0000002BFCD0BFF35F8F054B1B68BFF35F8FDB
:100B100000221A6081F3108840BF00200021704736
:100B2000280C002010B5002922D003681B7B9942B5
:100B30001ED8174B9C466144090183689C4661445A
:100B40000C684968002A19D003681B7B9A4215D8A3
:100B500083680F488446624412019A1810685368EB
:100B6000020001208B4201D80ED00020C0B210BD7F
:100B7000084B094A3B21094801F072F8054B064A27
:100B80003B21064801F06CF8A242EFD8EDE7C046E1
:100B9000FFFFFF0F2C6F0010D46D00102C700010A1
:100BA00010B500291FD0037B99421CD84B005B185D
:100BB000033B0468A446634400291AD0002A1ED0CF
:100BC000914222D0002A26D0047BA24223D8046876
:100BD000500080180338201881701978002920D01F
:100BE00041701A7010BD104B104A6921104801F075
:100BF00037F8104B104A70310D4801F031F80F4BA7
:100C00000D4A71210A4801F02BF80D4B0A4A722156
:100C1000074801F025F8044B044A6921044801F013
:100C20001FF81A70DEE7C046846F0010946D001044
:100C3000A06F0010E86F0010A06D0010F46F00109E
:100C40000070001070B506000D00140000290BD0D4
:100C5000002A12D0806873689847002806D12A00BD
:100C600021003000FFF79CFF200070BD220029000A
:100C70003000FFF795FF2C00F6E70C00F4E70000CA
:100C800070B5CE4600B583B00500009201930AAB63
:100C90001C780BAB1B789946002C28D003685A7B34
:100CA000944209D10123002B1BD1002C3DD12000FF
:100CB00003B004BC914670BD002C0CD01A7B94424A
:100CC00009D81A6863001B19033BD3189B78002BC3
:100CD000E9D00123E7E73F4B3F4A69213F4800F055
:100CE000BFFF3F4B3F4A65213F4800F0B9FF036813
:100CF0009C7B002CD9D012D01A7B94420FD8620072
:100D00001219033A19688C46624451789973002984
:100D100000D1D9730023937053701370C5E72D4B26
:100D20002D4A69212D4800F09BFF002C3BD02B68F9
:100D30001B7B9C4237D82D4BE3181B01AA689446B5
:100D400063440099019A19605A60089A9A60099A56
:100D5000DA602E68002C2CD031D0337B9C422ED808
:100D600063001B19033B32689446634400229A7067
:100D70005A701A70717B22003000FFF763FF7073A6
:100D8000844200D093E7287D009A019B00F01CFC70
:100D9000061E02D04B46002B17D00C9B002B00D117
:100DA00085E71E7083E7124B124A3B210E4800F084
:100DB00057FF114B114AA621084800F051FF054B7F
:100DC000054A6921054800F04BFF2868210000F022
:100DD00059FEE2E7846F0010946D0010A06F0010C0
:100DE000586E00100C6E00102C700010FFFFFF0FEB
:100DF0002C6F0010D46D001028700010B46D00101E
:100E0000F0B5DE4657464E464546E0B58BB00990F4
:100E10008200BA4BD7583D00A3E0B94BB94A3D21F7
:100E2000B94800F01DFFB94BB94A3B21B94800F061
:100E300017FF002B02D1002A00D0BCE00021604641
:100E400000F016FEA04219D132687368069207932B
:100E5000B3689946F3689A464B46002B14D0002C91
:100E600018D02B681B7B9C4214D8631EEA68D35CA5
:100E700008931B02184328610020A4E0A64BA74A50
:100E80008C21A44800F0ECFEA54BA44A9021A14877
:100E900000F0E6FE9D4BA34A40219E4800F0E0FE94
:100EA00000239A46994600208DE02B69002B00D143
:100EB000A9E043451CD1069A079B10001900921B1C
:100EC000BB41994202D804D1904202D90122524238
:100ED000D317002B12DB00210491013103910294FE
:100EE00051460191494600912800FFF7C9FE30E0C4
:100EF0008D4B8A4A9F21874800F0B2FE804B814A81
:100F00003D21814800F0ACFE002F02D1002E00D020
:100F10007CE02A68002C00D1C7E0537B9C4200D0C3
:100F2000ACE00123002B00D0BFE0D37B002B00D02E
:100F3000C1E0D473002C00D1D0E02B681B7B9C4215
:100F400000D9CBE0013CEB689C4664442378013334
:100F5000237000232B616A68BFF35F8F13608BF3EC
:100F6000108800F0DDFA002900DA56E7002300249B
:100F7000069307946A68EFF3108772B61368002B24
:100F8000FCD0BFF35F8F2B689C465C7B002C87D026
:100F900000D148E71B7B9C4200D944E7634BE6182D
:100FA0003601AB689846464432687368121A8B4122
:100FB000002B00DC3DE732687368099800F004FB01
:100FC00000239A4699466B68BFF35F8F00221A6030
:100FD00087F310884B46002B00D185E0089B1B024D
:100FE0002343984651461800C84706000F006A6818
:100FF000EFF3108B72B61368002BFCD0BFF35F8F3A
:10100000002F00DA51E7002F00DC7DE72B69002B71
:1010100000D17EE743451FD100F082FA02000B1E8B
:1010200020DB0100180092197B41984202D804D1BC
:10103000914202D901225242D317002B18DB002122
:101040000491013103910294514601914946009166
:101050002800FFF715FE7CE7334B304AA2212D48CC
:1010600000F0FEFD264B274A3D21274800F0F8FD01
:10107000234B244A3D21244800F0F2FD002C0ED0E1
:10108000137B9C420BD863001B19033B11688C46F1
:1010900063449B78002B00D144E7012342E7244BB3
:1010A000244A6921244800F0DBFD244B244AF7211F
:1010B000214800F0D5FD002B0AD0117B8B4207D8C8
:1010C0005900CB18033B11688C4663445C7030E7D1
:1010D000174B184A6921184800F0C2FD0B4B114A02
:1010E00040210C4800F0BCFD002800D039E70BB0CF
:1010F0003CBC90469946A246AB46F0BD180C002079
:10110000946A00107C6D0010B06A00102C6F001003
:10111000D46D00102C700010806E0010246E001032
:10112000986E0010E06D0010A46E0010FFFFFF0F1E
:10113000846F0010946D0010A06F0010E06E00101E
:10114000C46D001010B50A4B5B68002B04D00A2157
:10115000084800F0CDFA10BD054C2300064A1021C6
:10116000206800F0A3FB03212000FFF7A3FCEEE7BB
:1011700018040020280C0020250B001010B5064B89
:101180005B68002B01D0044810BD044B044A5C216D
:10119000044800F065FDC04618040020606F001090
:1011A000F46D00102C700010F0B5DE4657464E4628
:1011B0004546E0B589B0804616001F00129B99464F
:1011C00014AB1B789A461F236B4400221A7033E03D
:1011D00000280AD042461268127B904205D8421E6F
:1011E0004146C9688A5C934646E0434B434A4021E6
:1011F000434800F035FD32003B00361BAF41BB4297
:1012000002D804D1B24202D901267642F717002F44
:1012100012DA3C4B3C4A3D213C4800F021FD394B61
:10122000394A3D21394800F01BFD01246442E5178D
:10123000002D4EDB26002F0043465B68EFF3108540
:1012400072B61C6862425441E4B2002CF9D1BFF37B
:101250005F8F1F236B440493002303930293139B1C
:1012600001934B46009332003B004046FFF708FDD8
:10127000031EADD10022934641464968BFF35F8FFC
:1012800000220A6085F31088002B28D01F236B44AE
:101290001B78002B02D15A4614020443002B20D0A5
:1012A0005346002B1DD013992000C84704000D00A1
:1012B00003000B431DD000299DDB00F031F900290C
:1012C000ADDB24184D41A942AFD8B1D1A042AFD96E
:1012D000ABE70C4B0C4A3D210C4800F0C1FC01244B
:1012E0006442200009B03CBC90469946A246AB46F9
:1012F000F0BD0024F5E7C0462C6F0010E06D001033
:101300002C700010946A00107C6D0010B06A001000
:1013100070B504004268EFF3108572B61368002BB5
:10132000FCD0BFF35F8FCAB22668737B9A421BD191
:101330000120002849D023698B422DD0090AC9B267
:10134000002A2FD023681B7B9A422BD8531EE068BB
:10135000C35C8B422CD000206368BFF35F8F0022F8
:101360001A6085F3108870BD002A0DD0337B9A4235
:101370000AD853009B18033B3068844663449B782B
:10138000002B07D10020D4E7134B144A69211448DD
:1013900000F066FC0120CCE7124B134AFE211348F3
:1013A00000F05EFC124B134A4021104800F058FC3C
:1013B0001100300000F066FB0028CDD106210E4B55
:1013C000094AFF31094800F04BFC23698B42C3D125
:1013D00000232361C0E7C046846F0010946D0010A5
:1013E000A06F0010046F0010406E00102C700010F1
:1013F0002C6F0010E06D0010286F001070B584B0E5
:1014000005000C00FFF7BAFE002302930193194B6D
:1014100000932A002300FFF7C7FE061E12DC164BBE
:101420005B6A9C4209D8144A926AAA4208D29C423A
:1014300001D0012002E0002000E0002004B070BDD7
:101440000120FBE720BFFFF799FE3100FFF760FFA7
:10145000094B5B6A9C4209D8074A926AAA4207D2A2
:101460009C4201D00120E9E70020E7E70020E5E702
:101470000120E3E7F50A00100040054070B5EFF3E6
:1014800005833F2018401038EFF3108472B6194BD3
:101490001B68002BFBD0BFF35F8F01231900814035
:1014A000154A5163154A12781500C5402B4214D0D5
:1014B000114B5D6A8300124E9B599D4206D38300F7
:1014C000104D5B598A430D490A7007E00A4A031D13
:1014D0009B0099589950002300E00023BFF35F8FD1
:1014E000044A0021116084F31088002B00D0984733
:1014F00070BDC046280100D000400540480C0020C7
:101500002C0C00209007002010B50100024A03486F
:10151000FFF7D2F910BDC0467C700010460C0020C9
:10152000044B596A00E01900024B986A5B6A9942C1
:10153000F9D170470040054070B504000D00EFF38D
:10154000108672B61B4B1B68002BFBD0BFF35F8F5E
:10155000002D1CD0200000F02FFD174B98420BD01F
:101560001900200000F030FD0121200000F01CFDDA
:101570000123A340114A1360A400114BE550BFF3AF
:101580005F8F0C4B00221A6086F3108870BDA2009A
:101590000B4B0021D1500122A2400A490B78934302
:1015A0000B700549200000F039FD0021200000F0FB
:1015B000FBFCE4E7280100D07D14001038600540F2
:1015C00090070020480C0020F0B5DE4600B584B03E
:1015D0000500140001921E000293FFF7A1FF03947F
:1015E0008E422CD9EFF3108B72B6294B1B68002B5F
:1015F000FBD0BFF35F8F274A17780124AC40E3B2DA
:101600003B431370244B5C632A1D92000199D15017
:10161000AA002249029850501B6A23421BD11E4B3C
:101620001B6C234211D00020BFF35F8F184B0022A8
:101630001A608BF3108804B004BC9346F0BD8E4250
:1016400001D18442CED80120F5E7154B154AC121BE
:10165000154800F005FBFFF763FF8E4214D802D156
:10166000039B834210D80B4B1B78BB420ED00A4B16
:101670001C625C631F222A40012393400B4A1360C3
:10168000044B1F700120CFE70020CDE70120CBE7FE
:10169000280100D0480C0020004005402C0C002000
:1016A000A070001060700010C470001080E200E0B4
:1016B00010B5EFF3108472B60A4B1B68002BFBD0F9
:1016C000BFF35F8F01238340074A136207490A78FB
:1016D0009A430A70BFF35F8F024B00221A6084F3B3
:1016E000108810BD280100D000400540480C0020A3
:1016F000024B9C4661448900016070474000003401
:1017000070B504000D00FFF733F901002000FFF76A
:10171000EFFFFF2323716571BFF35F8F70BD10B5BD
:101720000021FFF7EDFF10BD10B5FF21FFF7E8FF27
:1017300010BD0000034B9C46614489000160BFF36B
:101740005F8F70474000003410B504000120FFF7A0
:101750001DF901002000FFF7EDFF10BD10B50029B5
:101760001FD0037B99421CD84B005B18033B0468D5
:10177000A446634400291AD0002A1ED0914222D0E8
:10178000002A26D0047BA24223D804685000801887
:101790000338201881701978002920D041701A7000
:1017A00010BD104B104A6921104800F059FA104B37
:1017B000104A70310D4800F053FA0F4B0D4A712159
:1017C0000A4800F04DFA0D4B0A4A7221074800F012
:1017D00047FA044B044A6921044800F041FA1A70A0
:1017E000DEE7C046846F001008720010A06F001082
:1017F000E86F001014720010F46F001000700010F9
:1018000070B506000D00140000290BD0002A12D07C
:10181000806873689847002806D12A0021003000AC
:10182000FFF79CFF200070BD220029003000FFF769
:1018300095FF2C00F6E70C00F4E7000010B500233C
:10184000437301338373037BC3730123027B9A4287
:1018500014D9002B0CD0027B934209D85A00D2181D
:10186000033A01688C4662440133DBB25370EDE702
:101870000B4B0C4A69210C4800F0F2F9002A09D000
:10188000924207D8016853009A18033A8A18002335
:10189000537010BD024B034A6921034800F0E0F980
:1018A000846F001008720010A06F001010B5017353
:1018B00042608360FFF7C2FF10BD000070B50400F6
:1018C000002901D1080070BD002934D0037B994262
:1018D00031D84B005B18033B0268944663445A7846
:1018E000002AEFD02DD0037B9A422AD853009B18B0
:1018F000033B0068844663445D78002058700029EB
:1019000025D0237B994222D84B005B18033B2068EB
:1019100084466344002058702000FFF771FF0600E2
:1019200029002000FFF7CAFF020031002000FFF766
:1019300067FF0100C6E7094B094A6921094800F021
:101940008FF9064B064A6921064800F089F9034BD6
:10195000034A6921034800F083F9C046846F0010F0
:1019600008720010A06F001070B505000C00160082
:10197000002928D02DD0037B99422AD84B005B1830
:10198000033B0268944663445A78002A27D19A7828
:10199000002A2AD11978FFF791FF0300002E03D007
:1019A000EA7B002A27D1EC73002B37D1002C49D0D9
:1019B0002B7B9C4246D82A6863001C19033C1419EF
:1019C0000023637070BD224B224A3821224800F068
:1019D00047F9224B224A6921224800F041F9224B63
:1019E0001C4A3A211C4800F03BF9204B194A3B2184
:1019F000194800F035F9002A0AD0297B8A4207D815
:101A000051008A18033A29688C4662445470CAE728
:101A1000124B134A6921134800F022F9002B0BD016
:101A20002A7B934208D843001B18033B2A6894463C
:101A3000634400229A70B9E7084B094A69210948B2
:101A400000F00EF9054B064A6921064800F008F936
:101A50007C7200102872001084720010846F0010D5
:101A600008720010A06F0010B8720010E072001031
:101A700070B504000A00457B2900FFF775FF60730D
:101A8000280070BD10B50400002966D0437B8B424E
:101A90000ED0002911D0037B99420ED84B005B1861
:101AA000033B0268D0188378002B0CD1002055E04E
:101AB0000121FFF7DDFF012050E0294B294A692170
:101AC000294800F0CDF8002B1FD0227B93421CD870
:101AD0005A00D318033B2268D21813788B421AD0CD
:101AE000002B1BD0227B934218D85A00D318033BFB
:101AF0002268D21853788B4216D0002BF0D11B4BA2
:101B00001B4A67211B4800F0ABF8154B154A6921A9
:101B1000154800F0A5F84378137007E0104B114A00
:101B20006921114800F09CF84378537000238370BA
:101B3000437001222000FFF717FF0200617B814202
:101B400005D02000FFF75CFE6073012006E00A4B21
:101B5000074A6D21074800F083F8002010BDC046F9
:101B6000846F001008720010A06F001054720010F3
:101B70003C720010847200105C72001070B5264B2D
:101B8000264A1A60264B274A1A60274B9A68254B2B
:101B90009343FAD1254C01E008CC9847244B9C4252
:101BA000FAD300F011F91E4B224A1A601E4B9B68B3
:101BB000DB43DB01FAD1204B40229A675A671A6750
:101BC000DA661E4C03E02000FFF7A9FD08341C4B29
:101BD0009C4206D26379002BF5D02000FFF7A4FDCC
:101BE000F4E7184CA168184DC022280002F04EFC02
:101BF000A560FEF738FB002800D000BEFEF7A8FE67
:101C000000F072FBFFF79EFA104C01E008CC9847F9
:101C10000F4B9C42FAD370BD00E00040BFCDFBFEED
:101C200000F00040FE7F3C0000C00040F8040020AF
:101C300008050020FFFFFF0100F00140F004002034
:101C4000F804002000ED00E000000020080500205E
:101C50000C05002000BEFDE710B5FFF7FBFF0000FC
:101C600010B582B00C001900002A0CD0084B002AD5
:101C70000BD00192009323000200064802F036FDCB
:101C80000120FFF7E7FF044BF1E7034AF1E7C04605
:101C90000473001014730010688000100FB400B5B6
:101CA00083B0084802F0F2FC049B002B07D005A982
:101CB0000191180002F0F8FC034802F0E7FC012053
:101CC000FFF7C8FF44730010186C0010F0B5DE4633
:101CD000574680B583B007000E0092460A9A934299
:101CE0004CD3190E01911B02180000930A9A00238D
:101CF00001F0D8FC05007B00DB199C002D4B9C46B5
:101D000064446368834200D260603B1FDBB29B4641
:101D1000012B39D9C0239B012343802212011A6071
:101D2000BB00254A9958002905D0506901F078FC7C
:101D300001300138FDD153465B0122685340E02257
:101D4000134080225201224313605B46012B26D9A7
:101D500080239B012343802212011A6065602A00C0
:101D600000230098019901F09DFCBF00124BF85030
:101D7000012003B00CBC92469B46F0BD0F4B104AAD
:101D80002D211048FFF76CFF012EC3D1C0239B010A
:101D9000234303221A60A368DB07FCD5CBE7216845
:101DA000714003230B401360A3680122B2401A4222
:101DB000FAD0CDE700800040A40700206473001033
:101DC000547300107873001030B583B00C2000F00D
:101DD00023FBFEF7B3FD00280DD0002304E099009B
:101DE0002D4A2E4888500133092BF8D92A4B2C4A0A
:101DF0005A6203B030BD2B4B00229A6700F014FBEF
:101E0000294B01221A60274B5B6C012BFBD1274B1E
:101E100003221A60234B9B6B012BFBD102240094FD
:101E20000533234A0121234800F06AFA0094052370
:101E3000214A0121214800F063FA214B009300223E
:101E400002210420FFF742FF1E4D00952B000022C7
:101E500001210520FFF73AFF104C009423000022D7
:101E600000210720FFF732FF009423000022002109
:101E70000820FFF72BFF0A4B0093230000220021CC
:101E80000920FFF723FF00952B00002200210620E8
:101E9000FFF71CFFADE7C046A4070020006CDC0282
:101EA0001BB70000008000403CB0004030B0004054
:101EB000002F68590080024000389C1C00C002407E
:101EC000001BB700405973078000014BC058704792
:101ED000A4070020074B9B68103080001950BFF307
:101EE0005F8FBFF35F8F044B0021196082F310886E
:101EF0007047C04600ED00E0240100D010B5091A7B
:101F000004394808090B05D14005400D044B18431E
:101F100080B210BD034B044A8C210448FFF7A0FE99
:101F200000E0FFFFAC750010D4730010BC7500100A
:101F300010B5091A04394C08090B08D14905490D97
:101F4000064A11430180064B2343438010BD054BD5
:101F5000054A94210548FFF783FEC04600F0FFFFC5
:101F600000F8FFFFAC750010E0730010BC750010A6
:101F700001238340034A10681840431E9841C0B2B1
:101F80007047C04600E100E0002902D1034B186011
:101F90007047034B1860034B1860F9E780E100E0DD
:101FA00080E200E000E100E010B50123834018006A
:101FB000FFF7EAFF10BD0000024B9B681030800065
:101FC000C058704700ED00E070B504000D00EFF35D
:101FD000108672B60C4B1B68002BFBD0BFF35F8FD3
:101FE0002000FFF7E9FF094B984201D0A84205D134
:101FF000320029002000FFF76DFF70BD044B054A39
:1020000070210548FFF72CFE240100D0CD010010FF
:1020100074750010B8730010BC750010F0B5CE4692
:1020200000B584B001900D00EFF3108672B65A4BE4
:102030001B68002BFBD0BFF35F8F584B9A68019C45
:102040001034A300D758564B9F4200D19FE0AF42B7
:1020500000D19EE00297534BFB1A2F2B08D9320078
:1020600039000198FFF736FF04B004BC9146F0BD7B
:102070000198FFF77DFF039000210198FFF794FF7F
:10208000BFF35F8FFEF7EFF8002801D084421AD12A
:102090000123029C9C43230042495B1A5B414B494C
:1020A0005943090D4BB29C460023A168A94212D0A6
:1020B0000622A256002A0DDB53009B189A0023002B
:1020C000384CA418F1E72021374B384AFF31384803
:1020D000FFF7C6FD2300A94252D10622A25691461F
:1020E000002A38DB52004A4491002E4B5B189A6854
:1020F000A260DA79E27106229A56A2719B795BB2EC
:10210000002B12DABD200002A0804B465B004B443E
:102110009A00244B9B18274A117899714B461370EB
:1021200003990198FFF740FF99E7201D1D4A8B187E
:102130001A1D9B88D90A1C2907D159054915023156
:1021400049005118FFF7DAFEDEE71B4B1B4A9A21C4
:102150001748FFF785FD00280DD1002B09D0FF227D
:102160009A71174A9A80134B1A78A27162461A70B4
:10217000D6E70B4FF7E7201D1249FFF7D9FECFE74F
:10218000AA21114B094A49000948FFF769FD044F8C
:1021900065E7034F63E7C046240100D000ED00E08F
:1021A000CD01001040040020487500100874001094
:1021B000BC750010470C0020FC740010F873001070
:1021C00000BDFFFF7A0400206C750010AAAA000071
:1021D00010B5032304009C43064A944664442268D5
:1021E0001840C000FC3383409A4381401143216072
:1021F00010BDC04600E400E0F8B504000126064327
:102200002D4BF31A2F2B28D8FEF72DF800282BD0B2
:10221000EFF3108572B6294B1B68002BFBD0BFF380
:102220005F8F230024495B1A5B412E495943090DF6
:1022300049B2234B9B6880001B58B3421BD000233C
:10224000032B32D85A00D21890001B4A12189279E8
:1022500052B28A421FD00133F2E77221194B1A4A57
:10226000FF311A48FFF7FCFCBA21194B164A490006
:102270001648FFF7F5FC124B9B68164A1A50164B8E
:102280001A78A2711970BFF35F8F0C4B00221A608D
:1022900085F31088F8BD08485A00D718BE00861983
:1022A000FF27B7710D4BB380E9E786210C4B064A37
:1022B000FF310648FFF7D4FC40040020240100D081
:1022C00000ED00E0147500101C740010BC750010C7
:1022D0003C750010CD010010470C002000BDFFFF31
:1022E00054720010AAAA000010B5002404E0802156
:1022F0002000FFF76DFF01341F2CF8D910BD00003E
:10230000F0B583B00400019117001E000C2001F00D
:1023100087F905004201121A93019B1ADB001B1872
:102320009901380001F07CF90200103A98235B0013
:102330009A4232D8731E062B35D8089B013B062BD8
:1023400031D8089B9E4234D33F09AF4237D3330480
:10235000089A16031E432368002B36DB244B9C424D
:1023600042D080214901234B1960234B1960234A35
:1023700092680B009343FAD1019B2360A060221D59
:10238000C0239B01134321221A602268002AFCDA31
:10239000E66008221A6003B0F0BD194B194A1621F5
:1023A0001948FFF75DFC194B164A19211648FFF72B
:1023B00057FC174B134A1F211348FFF751FC154BCD
:1023C000104A22211048FFF74BFC22683F2313409C
:1023D000019A9342C2D1A3681B051B0D8342BDD154
:1023E000E368002EBAD1D6E780218901BBE7C04659
:1023F00000C0024000E0004000F0004000C000408B
:1024000004760010F8750010207600105C7600103D
:10241000A8760010C076001080239B001843014B63
:10242000D862704700800540064BAA2212011A604C
:102430002F22DA60044B054A1A60024B5B68002BBE
:10244000FBDA7047004002400060024000B0FA0032
:10245000704710B5002802D00B684968984710BD36
:10246000002307E09A00D3185A004B1C03600B7836
:102470009B18303B01680A78303AD2B2092AF1D968
:1024800018007047F0B5D6464F464646C0B582B0F4
:1024900005000091904601930A9B99460B9C0C9E67
:1024A0000D9B9B0712D04E460C9B994618E0541C7E
:1024B000019B00992020A84701372200B742F6D39C
:1024C00054460C964E460C9B994609E02700A246BE
:1024D000F4E7013C571C305D019B0099A8473A0086
:1024E000002CF6D14E460D9B9B070AD5474605E0CA
:1024F000541C019B00992020A8472200D31BB34203
:10250000F6D3100002B01CBC90469946A246F0BD1E
:10251000F0B5CE46474680B587B0049205930E9E2F
:102520000F9C10AD2B789946129F139B149DAA0700
:102530001CD4002B0CD0EA070AD54A46002A02D147
:102540000C322A4204D0013B02E0302232550134E1
:10255000BC4205D21F2CF8D902E03022325501349A
:10256000EA0703D59C4201D21F2CF6D9EA0615D5FD
:102570006A0505D4002C03D0BC421CD09C421AD062
:10258000119A102A23D0119A102A28D0119A022ABF
:102590002DD01F2C02D83027375501341F2C2FD8AF
:1025A0004A46002A29D16A0737D42A0728D5202786
:1025B0003755013424E0671E002F06D0119A102AE7
:1025C00001D03C00DCE7023CDAE73C00D8E7AA0691
:1025D000D9D41F2CD7D8782737550134D9E7AA0684
:1025E000D4D51F2CD2D8582737550134D1E71F2C0A
:1025F000CFD8622737550134CBE72D273755013423
:102600000395029301940096059B049AFFF73AFF05
:1026100007B00CBC90469946F0BD2B2737550134C6
:10262000EEE7F0B5C64600B594B0089009910A925D
:102630000B931AAB10CB1B7898461F9D002C01D131
:1026400010239D438027FF002F4016D0002C20D060
:10265000002712E0AA061AD54121C918C9B20A39C1
:10266000C9B27E1C0CABD9551C99200000F0D8FFD4
:10267000041E0FD01F2E0DD837001C99200000F02B
:10268000CFFFCBB2092BE5D83033D9B2E9E76121CE
:10269000E3E7002606951E9B05931D9B04931C9B58
:1026A00003934346029301960CAB00930B9B0A9A4B
:1026B00009990898FFF72CFF14B004BC9046F0BDB0
:1026C000F0B5D6464F4680B599B00C900D910E925C
:1026D0000F93209C219D22AB1B789A46249B0A9342
:1026E000259B0B93289B994623002B4303D1103342
:1026F0004A469A4391468026F6004B461E4007D034
:1027000023002B4331D0002637004E4609941BE0AE
:1027100037004E46099417E0B20621D54122D2185F
:10272000D2B20A3AD2B27C1C10ABDA550A9A0B9B91
:102730000998290000F0B6FF09900D000B00034333
:1027400015D01F2C0ED827000A9A0B9B0998290038
:1027500000F0A8FFD3B2092BDED83033DAB2E2E7BB
:102760006122DCE72700B14603E0002701E02700F3
:10277000B1464B460693279B0593269B04930A9BE1
:10278000039353460293019710AB00930F9B0E9A4D
:102790000D990C98FFF7BCFE19B00CBC91469A46F7
:1027A000F0BD0000F0B5DE4657464646C0B592B0D3
:1027B00008900691099207931A9C1B9D22002B00FA
:1027C0002000290001F0FBF9002800D0EAE00122F6
:1027D0005242D34B2000290001F0ECF9002800D030
:1027E000E0E001225242CF4B2000290001F0CCF959
:1027F000002800D0D6E0002200232000290001F0AC
:10280000C3F9002800D0E3E022002B000A920B93CA
:102810008023DB001E9A1A409246131E01D1063314
:102820001C930A980B9902000B000C920D93030065
:102830000A00024300D1D3E00A00100D4005400D0C
:10284000B94EB44660441203120B1E00B74B13433B
:102850001F0001F0C7F9B64AB64B01F052F9B64A6B
:10286000B64B01F027F90C900D910022B44B3000CB
:10287000390001F016F9B34AB34B01F042F90200F6
:102880000B000C980D9901F015F901F0C3F9804681
:1028900001F0A8F9AD4AAE4B0C900D9101F031F961
:1028A0000022AC4B01F006F901F0B4F90700AA4A86
:1028B000AA4B0C980D9901F024F90C900D91380059
:1028C00001F090F9A64AA74B01F01BF902000B009A
:1028D0000C980D9901F0E5F802000B001090119191
:1028E00001F00FF90E900F919F4BFB181B050D93F4
:1028F00000230C93109E119F32003B0030003900E2
:1029000001F0D8F81090119132003B000020802196
:10291000C90501F0C6F806000F000022934B0E987F
:102920000F9901F0D0F80022914B01F0C3F802009A
:102930000B000E980F9901F0C6F800228D4B01F0A4
:10294000B9F802000B000E980F9901F0BCF80200D4
:102950000B003000390001F0ADF802000B001098B8
:10296000119901F0B0F80022704B01F0A3F80C9A15
:102970000D9B01F0C6F806000F000C900D910A9A0D
:102980000B9B01F017F900282CD001235B429C46D9
:10299000E0440022764B3000390001F094F80C90AE
:1029A0000D911FE01E9B04931D9B03931C9B0293A0
:1029B00022002B0000920193079B099A0699089820
:1029C00000F002F912B01CBC90469A46A346F0BD36
:1029D0000A9480231B069C46AC4463460B9317E77E
:1029E0000023984643466333C62B22D804271E9BF8
:1029F0001B052AD50C9A0D9B1900114311D05E4A74
:102A00005E4B0A980B9901F0CDF8002800D1BBE08D
:102A100000225B4B0A980B9901F0B6F8002800D110
:102A2000B2E01C9B434506DD42469E1A731E1C9372
:102A300003E00527DBE700231C938023DB001E9ABD
:102A40001A431E920027002398461D9B9F4200D3E5
:102A5000A6E0DB1B9B4602231E9A1A40924603D037
:102A6000002F01D000239B464346002B07D00C9A31
:102A70000D9B0A980B9901F026F80A900B91002201
:102A800000232000290001F07FF8002800D08AE010
:102A90003C4B1E9A134004935B4603931C9B02938A
:102AA0000A9B0B9C00930194079B099A069908982E
:102AB00000F08AF8002F00D184E71E9B9B0600D40B
:102AC0007DE04524451C079B020006992000089CD8
:102AD000A0474046C21781185140C30F7A1E0520F7
:102AE00005900492002203920A320292019300910F
:102AF000079B2A0006992000FFF793FD5346002B01
:102B000000D15FE70200089D099C131B1D998B42B1
:102B100057D2561C079B06992020A8473200F4E79D
:102B2000FFFFEF7FFFFFEFFF01FCFFFF0000F03F23
:102B3000FB799F501344D33FB3C8608B288AC63FAC
:102B40000000F83F61436F63A787D23F71A3790903
:102B50004F930A400000E03F1655B5BBB16B0240F1
:102B6000EF39FAFE422EE63FFF03000000002C4042
:102B700000002440000018402D431CEBE2361A3FB1
:102B800080842E41FFF7FFFF1C9B002B00D15CE7E8
:102B90005346002B00D158E71C9B013B1C9354E784
:102BA00000239B4657E70A9C0B9D220029008020AA
:102BB0000006844661440B000A920B9368E7652483
:102BC00080E71000FEE6C046F0B5D646474680B521
:102BD00097B00690079108920993209F1E9A1F9B19
:102BE0001000190000F0EBFF00282AD10122524208
:102BF000BB4B1E981F9900F0C7FF002830D101225F
:102C00005242B84B1E981F9900F0D4FF00283AD0CA
:102C10000423229A134032D0B34A002B31D103232C
:102C2000229903912199029101930092099B089A9C
:102C300007990698FFF726FC17B00CBC90469A46F9
:102C4000F0BD229B0393219B029303230193A74B87
:102C50000093099B089A07990698FFF713FCEBE786
:102C6000229B0393219B029304230193A04B009387
:102C7000099B089A07990698FFF704FCDCE79D4A30
:102C8000CBE70423CCE700229B4B1E981F9900F052
:102C900091FF002817D10022984B1E981F9900F031
:102CA00073FF00280FD1002200231E981F9900F007
:102CB0006BFF002817D100239A46229B5B0500D4A6
:102CC0007DE000261FE0229B0493219B0393029743
:102CD0001E9B1F9C00930194099B089A07990698D4
:102CE000FFF760FDA8E71E9A1F9B0020002100F05F
:102CF000D8FE1E901F9101239A46DEE70EAB3022CC
:102D00009A55013F01361F2E01D8092FF6D81E987B
:102D10001F9900F07FFF040000F064FF02000B0029
:102D20001E981F9900F0BDFEFA00754B9B181A689B
:102D30005B680C920D9300F0E4FE0A900B9100F09A
:102D40008DFF050000F04AFF02000B000A980B9966
:102D500000F0A7FE0A900B9100226A4B00F02AFFB8
:102D600000282ED00135280000F038FF02000B00AB
:102D70000C980D9900F00EFF002801D001340025B9
:102D8000002F2CD1200000F02DFF02000B001E9818
:102D90001F9900F086FE00225A4B0A900B9100F01A
:102DA000F3FE002841D10022564B0A980B9900F0FF
:102DB00001FF002839D1E30737D5013435E0062774
:102DC0007FE700224F4B0A980B9900F0DDFE0028A8
:102DD000D6D1002D01D0EB07D2D50135D0E70A942A
:102DE0001F2E10D8013F0A21280000F019FC741C86
:102DF00030310EAB99550A21280000F011FC051E58
:102E000025D02600ECE70A9C04E00EAA302191555B
:102E10001F0001361F2E02D87B1E002FF5D11F2E5A
:102E200003D80EAB2E229A5501361F2E14D80A2134
:102E3000200000F0CDFB751C30310EAB99550A21F6
:102E4000200000F0C5FB041E05D02E00EDE7A046D3
:102E50000A9C4646DEE72E000323229A1340012BEC
:102E600016D01F2E06D85346002B28D00EAB2D228D
:102E70009A550136229B0393219B029301960EAB38
:102E80000093099B089A07990698FFF7FBFAD3E687
:102E9000219B002B0DD05346002B02D10C33134243
:102EA00007D0219B013B219303E00EAB30229A55C2
:102EB0000136219B9E42D4D21F2EF6D9D1E7229B08
:102EC0005B0704D50EAB2B229A550136D2E7229B25
:102ED0001B07CFD50EAB20229A550136CAE7C04654
:102EE000FFFFEFFFFFFFEF7FBC780010C8780010F6
:102EF000CC780010C478001065CDCD4165CDCDC132
:102F0000D87800100000E03FF0B5DE4657464E4648
:102F10004546E0B595B006000B91150013930029C6
:102F200000D1FCE20027139B1878002800D1F8E2BA
:102F3000252809D07C1C2B003A000B99B047139B25
:102F4000013313932700EEE70133139300241DE0B0
:102F50000B00303BDBB2092B37D92A293AD00023AA
:102F60009A46139B1A782E2A44D000230C93139A66
:102F70001378683BD9B2122900D980E08B00D04980
:102F8000CB589F4601231C4301321392139A1178A8
:102F90000B00203BD8B21028DAD88300C948C358A8
:102FA0009F4602231C4301321392EFE704231C4384
:102FB00001321392EAE708231C4301321392E5E73A
:102FC00010231C4301321392E0E713A8FFF748FADD
:102FD0008246C6E71E9B1A1D1E921B68002B04DB4F
:102FE0009A46139B01331393BBE7022214435B42BF
:102FF0009A46F6E78022D20014435A1C13925A785C
:103000001300303BDBB2092B04D92A2A07D0002356
:103010000C93ACE713A8FFF723FA0C90A7E71E9BCD
:103020001A1D1E921B68002B04DB0C93139B0133AB
:1030300013939CE70023F8E780235B002343511C94
:10304000139152786C2A01D01C0018E0C0239B0019
:103050001C430131139112E080232343511C13912F
:103060005278682A01D01C0009E0C0231C430131BA
:10307000139104E080235B001C4301321392139BE5
:1030800018780300253BDAB2532A00D93DE29300B9
:103090008D4AD3589F4680239B001C4301321392D4
:1030A000EDE780235B001C4301321392E7E77828A9
:1030B0000AD058283BD06F283CD062283DD010233E
:1030C0009C43063B9C4601E010239C46582837D081
:1030D000692803D0642801D00C229443630501D5EC
:1030E0000122944369282ED064282CD0A30500D552
:1030F000A5E0E30500D5BFE0630600D4D2E01E9A48
:10310000111D1E911168FF220A4005945346049335
:103110000C9B0393634602930023019300922B00C0
:103120003A000B993000FFF77CFA07002BE01023E0
:103130009C46CBE708239C46C8E702239C46C5E78C
:1031400020221443C4E7A30521D4E30551D4630628
:1031500068D51E9A111D1E911168FF220A40D317CF
:10316000D1185940D20F0594534604930C9B0393F6
:1031700063460293019200912B003A000B993000B4
:10318000FFF74FFA0700139B01331393CBE61E9B07
:10319000DA1D07218A43110008311E911168536816
:1031A0009846DB1710931193109A119B100048401A
:1031B0000E901900404641400F910E980F99801AC9
:1031C00099410E900F914346DA0F089453460793A6
:1031D0000C9B069363460493002305930292009090
:1031E00001912B003A000B993000FFF769FA0700B4
:1031F000C9E71E9A111D1E911268D317D1185940A4
:10320000D20F0594534604930C9B03936346029399
:10321000019200912B003A000B993000FFF701FA60
:103220000700B0E7230605D51E9A111D1E91002345
:10323000D25E94E71E9A111D1E9112688FE71E9BA5
:10324000DA1D07218A43110008311E915368126864
:103250000092019300220894534607930C9B069317
:1032600063460493059202922B003A000B993000BA
:10327000FFF726FA070086E71E9A111D1E911368B4
:1032800000930594534604930C9B03936346029367
:10329000002301932B003A000B993000FFF7C1F98E
:1032A000070070E7230606D51E9A111D1E911268AD
:1032B0001204120C29E71E9A111D1E91126824E7B0
:1032C000DC760010287700106C77001046281AD0A2
:1032D0001E9B0733072293431A0008321E921A6876
:1032E0005B68009201930494534603930C9B0293F2
:1032F0002B003A000B993000FFF766FC0700139B88
:10330000013313930FE620231C43E1E7672801D024
:10331000472802D180231B011C43452801D04728A0
:1033200001D120231C431E9B0733072293431A001D
:1033300008321E921A685B68009201930494534607
:1033400003930C9B02932B003A000B993000FFF77C
:1033500029FA0700139B01331393E4E5022323406A
:10336000994622D0012398461E9B1A1D1E927C1C52
:1033700018782B003A000B99B0474B46002B1AD116
:10338000139B013313932700CDE5571C0C9B0B991E
:103390002020A84723003A005C1C9E42F5D8B24684
:1033A0001700A0462E000C9DDEE701233A000C9585
:1033B00035005646F0E7220043460C953500564648
:1033C00006E0571C0C9B0B992020A84723003A00CD
:1033D0005C1C9E42F5D814002E000C9DD0E71E9B6D
:1033E0001A1D1E921B689B460C9B002B21D10122AB
:1033F00052425B4601E001330A001978002902D0ED
:10340000511E002AF7D15A469B1A98468023DB00AA
:103410002340994603D00C9B984500D99846022337
:103420002340129307D03A005C4637004E460D9574
:103430001FE00C9ADDE73A004346370056460D95EB
:1034400006E0551C0D9B0B992020B84723002A004D
:103450005C1C9E42F5D8B2463E00A0465C46370052
:103460004E4606E00C930134551C0D9B0B99B84752
:103470002A002078002805D0002EF4D00C994B1E8D
:103480000029EFD13E0017000D9D129B002B03D1A8
:10349000139B0133139346E543460C95350056467E
:1034A00006E0571C0C9B0B992020A84723003A00EC
:1034B0005C1C9E42F5D817002E000C9DE8E72123E6
:1034C00023431E9A111D1E91126800920593082332
:1034D00004930C9B039310230293002301932B006E
:1034E0003A000B993000FFF79CF80700139B01335B
:1034F000139318E57C1C2B003A000B992520B0474C
:10350000139B0133139327000DE57C1C2B003A001D
:103510000B99B047139B01331393270003E5094E22
:1035200000E5AF420CD36A1E2B000B990020B04778
:10353000380015B03CBC90469946A246AB46F0BD5B
:103540003A00F1E75124001000B585B002900391D4
:103550000121009313004A4202A90248FFF7D4FC5C
:1035600005B000BD5324001001480421014B184749
:10357000900400209935001010B5010018231B8815
:1035800014221088984710BD10B5010018231B881D
:1035900016221088984710BDF0B5C64600B5070042
:1035A0000E0000250123984600E00135B5420AD2FD
:1035B000AC003C192068FFF7DFFF20600028F4D141
:1035C00000239846F1E7404604BC9046F0BD000059
:1035D000124A936F9B0815D29066D166002905D0D8
:1035E000FFE7FFE7FFE7516F106F704704B58021D9
:1035F0000906C2175140002800D0C84303F010FA52
:10360000002104BDF0B5146E556E576F166FFFF7AD
:10361000E3FF1466556657671667F0BD000000D0DB
:10362000114A936F9B0813D210665166002905D08A
:10363000FFE7FFE7FFE7516F106F704704B5002801
:1036400001D00020C04303F0EBF9002104BDC046C7
:10365000F0B5146E556E576F166FFFF7E5FF1466E1
:10366000556657671667F0BD000000D094464E4A75
:10367000926F9208624601D230E0C046F0B54A4EE1
:10368000B56F6D08FCD3346E756E776F366F00F0D2
:1036900025F89446444A146655665767166762468D
:1036A000F0BDC0469446404A926F9208624601D2ED
:1036B00058E0C046F0B53C4EB56F6D08FCD3346E93
:1036C000756E776F366F00F04DF89446364A146683
:1036D0005566576716676246F0BDC046002B24DB6F
:1036E00011D000293EDA00B5C943404200D1013172
:1036F00000F038F8C943404200D10131DB43524267
:1037000000D1013300BD002AEBD1002801D10029EE
:1037100005D00020C90FC90701D1C043410800B539
:1037200003F076F90022002300BD00B500290ADB72
:10373000DB43524200D1013300F014F8C943404248
:1037400000D1013100BDC943404200D10131DB430A
:10375000524200D1013300F005F8DB43524200D160
:10376000013300BD002923D1002B18D1002A0CD031
:10377000BC460D4F38667A6600210023FFE7FFE75D
:10378000FFE77A6F386F67467047002801D0074817
:10379000010000B503F03CF90022002300BD020047
:1037A0000B00002000217047000000D0FFFFFFFF4A
:1037B000002B00D0BDE0130C26D1002AE7D080B446
:1037C000104F39667A66FFE7FFE730B4040C7B6F71
:1037D000396F1B0423433B66FFE7FFE7FFE7C04663
:1037E00084B27B6F3D6F1B0423433B66FFE7FFE71B
:1037F000C04600232C042D0C7A6F386F00196941E4
:10380000B0BC7047000000D0F0B594460025140EFF
:1038100001D112020835140F01D112010435940FA1
:1038200001D192000235D40F01D152000135D40BE1
:103830000134254F7C66254C3C660E0C93B2FFE7A5
:10384000FFE7FFE73C6F6643360C7703BE467343E2
:10385000DF0B5B04C01AB941130C7343DB18C91AA0
:10386000CE086643360CB64493B273431F0F1B0158
:10387000C01AB941130C73431F0B1B05C01AB94181
:10388000860D8F023E436643360C092D24DB520A17
:103890007243801A7703460A6643360C16235B1B75
:1038A000DE40DF40BF1964466643821B7046043524
:1038B00006330100D940A840C01900D30131A2420B
:1038C00006D20023F0BD0000000000D0FFFFFFFF84
:1038D000121B0130F3D3F1E709277F1BFE4064463A
:1038E000A2B27243801A00D20139220C7243130C27
:1038F0001204821A99410B007046043513370100F7
:10390000F940A840801900D30131002B02D1A24216
:103910000AD2F0BD013000D30131121BFAD2013BB3
:10392000F8D1A24200D2F0BD013000D30131121B08
:10393000F7E7F0B51C0C00D080E00CB400251C0AA1
:1039400004D11B02160E3343120208351C0B04D19E
:103950001B01160F3343120104359C0B04D19B004D
:10396000960F334392000235DC0B02D192185B4173
:1039700001351C00971864410134464F7C66464C63
:103980003C660E0CFFE7FFE7FFE7C0463C6F66436F
:10399000360C7703BE4697B27743C01B00D201397D
:1039A000C01B00D201399FB27743C91BC91B170C3A
:1039B00077437E04FF0B801BB941CE086643360C6B
:1039C0000C2D33DBB644120B1F053A431B0B97B289
:1039D0007743C01B00D201399FB27743C91B170C34
:1039E00077433E043F0C801BB941860D8F023E4356
:1039F000664329277F1BFE400C3D7746AF40BF1929
:103A000030BCA2B2ABB272437343801A9941220C0C
:103A10007243130C1204801A994102000B00013703
:103A2000001BA941F9D2781E0021F0BD0C277F1B95
:103A3000FE4077467F0BAF40FF19E0E700245D1C96
:103A400007D0144F7D663966FFE7FFE7FFE7FFE722
:103A50003C6F95B29EB265436643401BB141150C65
:103A60001E0C6543664336042F0C3E432D04401B59
:103A7000B141994204D202000B0020000021F0BDA8
:103A800001D19042F7D3801A994101349942F2D37F
:103A9000F6E70000000000D0FFFFFFFF4840414074
:103AA000484018B41B4B5B68FC46019308BD04DF1B
:103AB000673D001018B4174B1B68FC46019308BD06
:103AC00000DF713D00109446134A926F920809D2AC
:103AD000624618B40F4BDB68FC46019308BD0CDF4F
:103AE000294000100C4AF0B5146E556E576F166FD2
:103AF0006246FFF7EEFF084A146655665767166779
:103B0000F0BD18B4034B9B68FC46019308BD08DF69
:103B1000CD3E0010500C0020000000D0FFB55040FA
:103B20004240504059404B40594000E0FFB5154FCE
:103B30004C00640D03D0BC4204D10C0314D8002007
:103B4000090D09055C00640D03D0BC4204D11C03BF
:103B50000AD800221B0D1B0501264B4009D44B40FF
:103B600003D58B4200D18242FFBD9942FCD19042E5
:103B7000FFBD0B43DB1803431343F5D0C94349187A
:103B8000FFBD0000FF07000000B5FFF7CFFF804139
:103B900000BDC04600B5FFF7C9FF01D9002000BD38
:103BA000012000BD00B5FFF7B9FF01D9002000BD1D
:103BB000012000BD00B5FFF7B1FF804100BD01202D
:103BC00040054A00121804D85A00121801D80020E3
:103BD0007047012070470020704700000021002836
:103BE00005D17047C1174840401AFAD0C90713B52C
:103BF000064B1B6898470CBC441CA2401005120BD6
:103C00000349091B09051943114310BD500E00203B
:103C10001F04000010B54C00620D8023D218DB0099
:103C2000D21A5B057E2A10DD9E3A13DACC170903FF
:103C3000490819435242D140640001341532202A08
:103C400005DAD0400843604310BD002010BD08468F
:103C5000604310BDC80FC018013810BD18B4044B24
:103C60005B6AFC46019308BD24DF5542001000004A
:103C7000500C002070B513231C78012C0FD0012CA0
:103C80000FDC022C02DC1D4A1D4B9A6470BD9900AA
:103C90001A481B4A885001331F2BF8D9EFE700233D
:103CA000FAE71848FFF770FC05001748FFF76CFCAF
:103CB000023803789B007F2B19DD802229001048F1
:103CC00000F0E4FB022CDCD1104B1A88B5231B0258
:103CD0009A4209D10E4B1A880E4B9A4204D10E4BD0
:103CE0001A880E4B9A42CCD00020FDF7D7FF0C4B20
:103CF0000C4A30210C48FDF7B3FFC0462D3D0010A3
:103D0000500C00205344000053460000543800007B
:103D1000D8380000494600009C3800005946000091
:103D200028790010CC7900108879001007B560461A
:103D3000002800D100BE01880A0A0230DF2AFAD129
:103D4000C9B2820804D3028840880004104300E00E
:103D50000068024A5050039007BD0000500C00203C
:103D60000FB403BC0CBCF0B50124E407634000E0D1
:103D7000F0B50C0DCF0F661E3605891B640503D305
:103D8000C943404200D30131640D03D0661CF60ADA
:103D900007D0E41B00207F00791C89078912803C32
:103DA00024031D0DDF0F6E1E36059B1B6D0503D30F
:103DB000DB43524200D301336D0D03D06E1CF60A73
:103DC00007D0ED1B00227F007B1C9B079B12803DD0
:103DD0002D032F1B661B58D4A446202E46DA20370D
:103DE0001400BC401D00BD40F24033412A438018FE
:103DF0005941CB0F05D0C943C04300226442504112
:103E0000514162464D0D28D10D0D07D100281FD01C
:103E1000241940414941013A0D0DF9D0640006D3FF
:103E2000013000D30131002C01D140084000013A9B
:103E30000BD4941CE40A04D112051144DB07194485
:103E4000F0BDD907204B194300E0D9070020F0BD91
:103E50000029DDD1002CDBD1F0BD0132C6074008BE
:103E6000CD0728434908002EE1D0D9E73C2E29DAB6
:103E7000203E40371400BC4000D00124F2401443DF
:103E80001A00BB401C43D317ACE7AC46202F08DA1E
:103E900020360400B4400D00B540F84039412843B5
:103EA000A5E73C2F0CDA203F40360400B44000D098
:103EB0000124F84004430800B1400C43C117EAE76D
:103EC00010001900002494E70000F07FF0B50C0DFD
:103ED000661E3605891BE60A6405640D02D0651C62
:103EE000ED0A04D0002001210905803C2403A446EA
:103EF0001C0D671E3F05DB1BE70A6405640D02D03D
:103F0000651CED0A04D0002201231B05803C24031C
:103F10007740644497B484B296B27443070C7E43EE
:103F2000150C6F4380B26843361802D30120000499
:103F30003F183004350C00197D41844688B29AB28E
:103F400050430C0C62431F0C7C438EB27E4392198B
:103F500002D301263604A4191604170C361867413B
:103F600001BC81B29AB25143040C62431B0C5C4306
:103F700080B25843121802D3012000042418100400
:103F8000130C401863412D185E410020474106BCC8
:103F900088B293B258430C0C6343120C544389B259
:103FA00051435B1802D301210904641819041A0C47
:103FB000091862416D1856410020474118BCF902AA
:103FC000720D1143F0026A0D1043ED020A0D03D188
:103FD0006D1940414941013B124E9B1B7600B34293
:103FE0000ED26D0007D3013000267141664635437D
:103FF00001D1400840001B05C918E4072144F0BD69
:104000000BDA013306D1013004D101314F0D01D05B
:104010004908F2E7E1070020F0BD01363105002034
:10402000EBE70000FF030000F0B51C0D671E3F0525
:10403000DB1BE70A6405640D02D0661CF60A04D097
:10404000002201231B05803C2403D0252D060026D9
:10405000F6432E661E096E66CE0FF619B446490069
:104060004F0D02D07E1CF60A03D000200021403FF5
:104070003F033E1BB600B444013F7F05C91B4908FE
:104080002E6F013676089C02950D25437543ED137E
:104090007543AD1301356D10F603761B0CB4CC02DD
:1040A000450D2C43A2B2B3B25A43270C7B43350CC7
:1040B0006F43A4B26C431B1902D3012424043F199B
:1040C0001C041D0CA4187D4124196D41009A91B265
:1040D000ACB26143170C7C432B0C5F4392B25A4342
:1040E000A41802D301221204BF182204230C521870
:1040F0007B41019C6C431B19520ED9010A434401B8
:10410000A01A81B2B2B2514303145A43360C73431E
:1041100087B27743D617D21900277E4136049B1900
:104120001704160C7F185E417316ED18F301002674
:1041300080337541A90F06D16400690AE8055B0A5E
:10414000184309D22FE00422944480337541A90A10
:10415000A8059B0A184326D3404149412404009AEC
:10416000019B0D005543641B4343E41A95B286B28C
:104170007543170C7E43030C5F4392B25A43B61843
:1041800002D301221204BF183204330C52197B41AE
:1041900052429C41002C02D400220130514140087F
:1041A000CA071043490802B06246D7079210084B6D
:1041B000D218084B9A4203D212058918C919F0BDCA
:1041C0000020002A01DC3900F0BD01331905F5E7B4
:1041D000FD030000FE070000624618CA944600294D
:1041E0001ADAC01861415B463B415C46B440524616
:1041F000FA40224344464D4662416B4190469946FF
:104200002B46B3403D41FC401C4352465B46A24115
:10421000AB4192469B467047C01AA1414B463B4179
:104220004C46B4404246FA40224354465D46624101
:104230006B4192469B462B46B3403D41FC401C439C
:1042400042464B46A241AB419046994670470020FA
:1042500000217047002200B5203200F004F8080069
:1042600000BD000000220B15F1D410B5944600F0FB
:104270002FF81414013400DA0021CB17134C204717
:104280006244343A0CD40C2A07DA0400914090407E
:1042900052422032D440214310BDD843D94310BDEF
:1042A000203207D40C469440524220321141D04073
:1042B000204310BD0800C917203203D452422032D7
:1042C000104110BD1800190010BD000081420010FF
:1042D0000A0DCC0F531E1B05C91A520503D3C9433F
:1042E000404200D30131520D03D0531CDB0A07D0EA
:1042F000121B00206400611C89078912803A120396
:10430000014BD21A70470000FF03000051434343A2
:10431000C9188C46110C83B24B4310B4040C614392
:1043200092B280B2504362431C041B0C001910BCB3
:1043300059411304120CC0185141614470470000E8
:1043400070B513231D782A48FFF71EF90400012DCC
:1043500011D0012D09DDA31E1B789B007F2B40DDB2
:1043600080222100234800F091F82348FFF704F948
:10437000224B186070BD542201001E4800F086F8E0
:104380001F4B1A881F4B9A421CD1A7239B011A88E6
:104390001D4B9A4216D11D4B1A881D4B9A4211D1C2
:1043A0001C4B1A8894239B019A420BD11A4B1A88F2
:1043B0001A4B9A4206D11A4B1A681A4B9A4201D1EB
:1043C000152307E01848FDF769FC99001748094ACA
:1043D000885001331F2BF8D9144A064B1A62DA6150
:1043E000B7E7134B134A42211348FDF739FCC04687
:1043F00053460000500D00204C330000500E0020AA
:10440000EE290000C40F0000C20D0000962B000032
:10441000C0B50000182B0000CC2A000010B5000029
:10442000FC2C000051ED8764688000103D440010B2
:10443000E0790010587A0010147A001007B5604631
:10444000002800D100BE01880A0A0230DF2AFAD112
:10445000C9B2820804D3028840880004104300E0F7
:104460000068024A5050039007BD0000500D002024
:1044700001480421014B1847A00400209935001081
:10448000014B1B6818470000A0040020014B5B682B
:1044900018470000A0040020F8B506000D00170022
:1044A000437C002B23D10368110028009847F8BDF6
:1044B000337C10E00221174833689847601C0134B0
:1044C000BC4217DA002CF3DD2B19013B1B780D3BA6
:1044D0005A425341DBB22A5D0A2AF0D1002BEED1B9
:1044E000A042E7DA211A281833689847E2E7002447
:1044F0000020E5E7B84203DA391A281833689847EC
:10450000002FD4DDED19013D2B780D3B5A4253416C
:104510003374CCE7E47A001070B505000368002B13
:1045200016D00C4B1C6805E0291D2A682000FFF7F7
:10453000B3FFE468002C09D02368002BF9D0064BA8
:104540001B68002BF0D0A342F3D1EDE700232B60D2
:1045500070BDC0460C0800201008002070B5050092
:104560000C000B68802B05D023685A1C2260E418CD
:10457000257170BD0800FFF7CFFFF5E710B582B0D9
:10458000D0231B0600241C5701A9074802F050FA4B
:10459000002806D1019B9C4203D0034802F058FA40
:1045A000012002B010BDC046F004002010B5024842
:1045B00002F026FA10BDC046F0040020F0B585B028
:1045C00001900D001600FFF7D9FF07006B1C02D009
:1045D000164B1C6805E0019802F0DEF90500F7E7CC
:1045E000E468002C18D02368002BF9D0104B1B680E
:1045F000002B01D0A342F3D12A0001992000FFF73C
:104600004BFF002EECD002ABD91D0A230B70012208
:104610002000FFF741FFE3E7002F04D1681E85412A
:10462000E8B205B0F0BDFFF7C1FFF7E70C080020C6
:10463000100800200C4B1A681300002B0BD083428B
:1046400002D01A00DB68F8E7002903D1DB68D360E9
:104650000023C36070470029FCD0002A01D0D0603D
:10466000F8E7014B1860F5E70C08002010B5064B81
:104670001C6800E0E468002C04D06368002BF9D0CB
:104680009847F7E710BDC0460C08002070B505003C
:1046900002F082F90400012201002800FFF78EFFDA
:1046A000FFF7E4FF200070BD70B5A2B004000E005B
:1046B000FFF764FF05008422002101A8FFF7E0FE58
:1046C0003300220001A90848FEF73EFF040001A8BC
:1046D000FFF722FFFFF7CAFF002D02D1200022B012
:1046E00070BDFFF763FFF9E75D4500100FB400B53B
:1046F00083B004A901C90191FFF7D6FF03B008BC3C
:1047000004B0184710B500F07FF810BDF0B583B0C5
:10471000002606E06B469C1D25700025002D1DD04F
:1047200001368E4222DA124B1A68855D114BD3187E
:104730005C4263415B00104C1B5FAB42EAD16B46AD
:10474000DC1D0D2323700027002FE3D193699B0606
:10475000FCD42378136001370134F5E793699B0695
:10476000FCD42378136001350134D7E703B0F0BDE2
:10477000400C00200080FCBF4C0C0020F0B583B042
:10478000070000200BE0461C381800246B46DD1D96
:10479000002C0FD06B4607331B7803703000884223
:1047A00004DA094B1A689369DB06ECD5002809D0B6
:1047B00003B0F0BD9369DB06FCD413682B700134A1
:1047C0000135E5E70338F3E7400C002070B515002C
:1047D0001C000B4B1860FCF72BF9002D0ADA002C9B
:1047E00003DB02212000FBF7FBFF01210548FFF757
:1047F00021FF70BD02212800FBF7F2FFEFE7C04662
:10480000400C0020B004002010B5064B1B78064B6E
:104810001B78E1210123002249020448FFF7D6FF5B
:1048200010BDC046B8800010BC800010004003409E
:104830000123084A1360084A1360084B9A68012351
:104840009343FAD1064B01221A60054B1B68DB0526
:10485000FBD5704700E0004000F0004000C0004081
:1048600000C004407F230340C20958008018400163
:10487000014BC0187047C0461408002010B582B024
:1048800001AB00221A7080325A70002408E001AB9C
:10489000185DFFF7E7FF0123C370002303740134A1
:1048A000012CF4D902B010BD10B5828B131C402A24
:1048B00000D940239BB216490A68C260D3180B6026
:1048C000990604D03F218B43403311490B60104BB4
:1048D00019688B060FD10F4B5A404B40802149017C
:1048E0008B420ED8837F9B061A43A0231B061A43D4
:1048F00043681A6010BD084B084A52210848FDF76A
:10490000AFF9084B054A54210548FDF7A9F9C046FF
:10491000140C002000001050187C0010287B0010A0
:10492000487C0010987C001070B504007F2008407F
:10493000CD09A170694269416170002822D101212D
:10494000E170012B20D0402A25D8A283A377012D26
:1049500025D0C3001C4A94466344A360A368002288
:104960001A60002821D0012D26D00138C000174B35
:104970009C46604460602378002B1AD12000FFF72A
:1049800093FF16E00021DBE711498A42DDD91100CF
:104990001048FDF783F911000E48FDF77FF9C300B9
:1049A0000D4A94466344A360D8E7002363600B4B31
:1049B000E3600123237070BD0138C000084B9C46A2
:1049C00060446060D7E7C046840010500C0010506F
:1049D000FF030000CC7C001080001050000110503C
:1049E0000800105070B504000D001600FFF73AFFE4
:1049F00033002A002100FFF797FF70BDF0B5CE46C7
:104A0000474680B583B0244B9B6D98460027012410
:104A10000AE0224B224ADA212248FDF721F94346D7
:104A2000A3439846640001374346002B2FD01F2F25
:104A30002DD843461C42F5D0174BDB6D1C42E8D104
:104A4000194B9C657B0801263E4072425641F6B2E6
:104A5000FF221A4091465500AD196D01134BED1818
:104A6000280000F0DBFA0028D9D04B465B009E19E5
:104A700076010E4B9E19B28AB17801230093002370
:104A8000002000F081FE280000F012FAC7E703B012
:104A90000CBC90469946F0BD00001150247D0010DA
:104AA0003C7B0010487C001000301150140800209E
:104AB00070B5244A9823D458E30314D40025E306A0
:104AC0001FD4A3040AD580239B011D431D4B1B6DDE
:104AD000DB031BD51C4B802252021A65E3041BD456
:104AE000A54229D170BDFFF7C9FE01221749002058
:104AF00000F030FE144B802292021A6580256D0270
:104B0000DDE710231D43FFF779FFDAE701220221D9
:104B1000002000F0F5FDDDE70A4B00221A6080233B
:104B20005B011D4301320021002000F0FDFD064B1A
:104B3000802212031A65D3E7290061400448FDF77B
:104B4000ADF8C04600001150003011500000105068
:104B5000107D001070B50C0015001E00FFF782FEDE
:104B600033002A00210000F089FA70BD10B5FFF76C
:104B700085FE0123002200218020FFF7EBFF10BDFE
:104B800010B50400037C002B11D183785A0605D19F
:104B9000DB09012B12D00222094B9A6680221201F6
:104BA0000849200000F08CF90123237410BD042172
:104BB000054B064AFF310648FDF752F80122EBE7A4
:104BC00000201150FFF7FFFFF47C0010547B001011
:104BD000487C001010B5FFF745FEFFF7D1FF10BD70
:104BE00010B5040083785A0605D1DB09012B0AD0E1
:104BF0000222064B9A6600220549200000F060F967
:104C00000023237410BD0122F3E7C0460030115089
:104C1000FFF7FFFF10B5FFF725FEFFF7E1FF10BD1F
:104C200010B5002804D101210520FDF7BDF910BD04
:104C3000AA21034B034AFF310348FDF711F8C04690
:104C4000047D0010747B0010487C001010B5002813
:104C500002D1FFF78BFF10BDDB21034B034A490054
:104C60000348FCF7FDFFC046047D0010847B001064
:104C7000487C001010B5002804D1064B8022520158
:104C8000DA6410BDC021044B044AFF310448FCF72C
:104C9000E7FFC04600201150047D0010947B0010F7
:104CA000487C001010B5002804D1064B8022520227
:104CB000DA6410BDD021044B044AFF310448FCF7EC
:104CC000CFFFC04600201150047D0010A87B0010CB
:104CD000487C001010B5041E25D100F0C1F815491C
:104CE0000520FDF771F98022D20000211248FFF75C
:104CF000C7FB124B124A1A60002240210020FFF726
:104D000071FE002240218020FFF76CFE0D4B012236
:104D10001A6480229205DA6490220B49995020008F
:104D2000FFF7C0FF10BDC521084B094A49000948DB
:104D3000FCF796FFB14A001014080020140C002064
:104D4000800110500000115010300100047D00104F
:104D5000687B0010487C001010B5002808D10B7843
:104D60005B0602D14B78052B09D0FFF787FD10BDFC
:104D7000ED21054B054A49000548FCF771FF8A788B
:104D8000044B1A60F1E7C046047D0010B47B0010AC
:104D9000487C00100000115010B50C0000280DD107
:104DA00009796279072313401B021943E2789207BD
:104DB000920FA078FFF716FE012010BDF521034BDE
:104DC000034A49000348FCF74BFFC046047D00102E
:104DD000D07B0010487C001010B50C0011001A00A8
:104DE000002805D101232000FFF7B4FE012010BDEB
:104DF000F221034B034AFF310348FCF731FFC04661
:104E0000047D0010E07B0010487C001010B50028E5
:104E100003D10800FFF7DEFE10BDFD21024B034A5F
:104E200049000348FCF71CFF047D0010F07B0010D4
:104E3000487C001010B5002803D10800FFF7EAFEF7
:104E400010BD034B034A04490448FCF709FFC04660
:104E5000047D0010007C001001020000487C00105E
:104E600010B580235B040D4A13600D4A13600D4B8F
:104E70009A6880235B049343F9D10B4C9C22002158
:104E80002000FFF7FDFA8022520100210748FFF7BA
:104E9000F7FA092363670333A36710BD00E00040FE
:104EA00000F0004000C00040000011500000105011
:104EB00000230374437443828382C38283617047F7
:104EC00010B5002902D083681B681940002A0FD052
:104ED000114353050CD5826813685B050BD40B4B4B
:104EE0000B401360FFE7FFE7FFE7FFE7FFE7FFE7A0
:104EF0008368196010BD83787F211940DB099B000E
:104F0000034A9A580348FCF7C9FEC046FFFBFFFF5F
:104F1000C40400205C7D001070B50400C58A8022A6
:104F2000D2002A434378002B0CD0E378002B15D114
:104F300000210A4301214B40E37000212000FFF7CC
:104F4000BFFF70BD818A83699C4661442A00C068A6
:104F5000FFF79CFA034A2A4392B2E6E780218901CF
:104F6000E7E7C0460084FFFF70B504000E0015009F
:104F7000437C002B14D165820023A382A28B131CD7
:104F80003F2A00D840232A1C99B28D4200D91A1C0E
:104F9000E28201236374A6612000FFF7BDFF70BDAC
:104FA000FFF786FFE7E7000070B5040083681B6821
:104FB0009D05AD0D4278002A13D11B040BD4838AC2
:104FC000EB1883826378002B04D0E38AAB4201D9CB
:104FD000A38A638270BD0D4B0D4AEA210D48FCF790
:104FE0003FFE1B040BD5808AA3699C4660442A00BF
:104FF000E168FFF74BFAA38AEB18A382E2E7064BBE
:10500000034AF4210348FCF72BFEC046DC7D001068
:10501000307D0010FC7D00104C7E0010F8B50400BF
:10502000457C002D19D0FFF7BFFF618AA28A8B1A39
:105030009BB2A08B061C3F2800D84026181CB7B294
:10504000BB4200D9301CE08291420DD303D0200036
:10505000FFF762FF00252800F8BD81787F23194003
:10506000034A0448FCF71AFE0348FCF717FEC04643
:10507000C40400208C7D0010B87D001010B50478A9
:10508000002C04D0002B09D1FFF7C8FF10BD3A2136
:10509000044B054AFF310548FCF7E2FDFFF764FFCA
:1050A000F4E7C0467C7D0010487D0010FC7D0010B8
:1050B00070B5002403E00D782C19A4B2491994426C
:1050C0000AD24D78052DF6D18E787A3535406D00AF
:1050D0004519F609AB55EEE770BD000070B5050047
:1050E0001C4C372200212000FFF7CAF9E01C1022D7
:1050F000FF21FFF7C5F9200013301222FF21FFF72F
:10510000BFF901F041F8002411E0E31ADBB2002BF3
:1051100007D15A00D318DA000F4B9B1802E0230086
:10512000F5E700235B68280098470134E4B20B4B95
:105130001B785A1C94420BDA094A002AEFD0A3428A
:10514000E3D962001219D100064B1B685B18E9E72E
:1051500070BDC046500700208C7F0010440C00201A
:10516000000000006406002070B505000C00160069
:10517000C86801F013F8E36832000021280098475E
:1051800070BD0000F0B5CE46474680B583B00190B3
:105190000139C8B2FBF7EEFA002802D04378022B9F
:1051A0000AD0614A61496248FFF7A0FA002003B0C3
:1051B0000CBC90469946F0BDC5796B1101225D4C3F
:1051C0001340190123781026B343AD112A40520130
:1051D0000B4320218B43134323700600093682784A
:1051E000C3781B021343804698447CE03378B14671
:1051F000F61880E0504A4D494D48FFF777FA0020F5
:10520000D5E7E31ADBB2002B07D15A00D218D2003F
:105210004A4B9B1802E02300F5E700239B682A0015
:10522000310001989847071E13D10134E4B200946D
:10523000434B1B785A1C94424FDA424A002AEAD068
:10524000A342DED963001B19DA003F4B1B689B1891
:10525000E4E7082818D9854216D3B278354B9B1855
:10526000DB78FF2B17D1334B9B18DC704B46002BA0
:105270002BD09A78B3789A4215D14B461A79737924
:105280009A4210D101231CE0304A28492848FFF7F0
:105290002DFA00208BE7D822920024492448FFF7FA
:1052A00025FA002083E72A4A20492148FFF71EFA01
:1052B00000207CE7B17859181E4A5218D470013387
:1052C000DBB24A46D2789A42F4D81A4823003A0010
:1052D00031001330FFF7ECFEF619194B1B78013340
:1052E000009A9A4210DA464515D273780B2B00D1FA
:1052F0007CE7002399467378042B00D07AE7434675
:105300009D1BADB2002492E7124A08490848FFF7F6
:10531000EDF900204BE7104B002B03D0FBF7C4F94D
:10532000012044E7012042E73A0300002C7F0010EF
:10533000A47F0010500700204F0300008C7F001056
:10534000440C002000000000640600205D03000003
:105350006A0300007B030000A9060010F0B583B0CB
:1053600004000D008B78C87800021843030AC0B20D
:105370000F2B5FD89B00334AD3589F46FBF7F2F9B7
:10538000020012232900200000F0ACFE53E02E4B57
:10539000002B10D000E000BF06006B469F1D811C53
:1053A00002223800FFF772F83B8832002900200003
:1053B00000F098FE3FE000203DE0FBF7DBF9061E21
:1053C0000DD06B469F1D811C02223800FFF75EF84E
:1053D0003B8832002900200000F084FE2BE01B4AAD
:1053E0001B491C48FFF782F9002024E00B7949791A
:1053F00009021943FBF7C2F900281ED00378020006
:105400002900200000F06EFE15E0134B002B16D093
:1054100000E000BF002806D0037802002900200029
:1054200000F060FE07E00D4A09490A48FFF75EF9FF
:10543000002000E0002003B0F0BD0020FBE70020CA
:10544000F9E7C0466C7E001000000000C9030000B0
:10545000407F0010A47F001000000000E90300005E
:10546000024B5878431E9841C0B270475007002045
:10547000024B18784007C00F7047C0465007002005
:1054800010B5094B1B785B070CD5074B1A7818230E
:105490001340182B01D0002005E00020FFF7EAFBA5
:1054A000012000E0002010BD50070020014B1878BB
:1054B0007047C046450C002070B50500284B187891
:1054C000002800D070BD372200212648FEF7D8FF03
:1054D000254C2000FCF723F9244B1C60244C2000B1
:1054E0001C30FCF731F9200001F010FA214B1C6050
:1054F000214B002B04D0214800E000BF204B186056
:10550000002410E0E31ADBB2002B07D15A00D318B5
:10551000DA001C4B9B1802E02300F5E700231B6810
:1055200098470134E4B2154B1B785A1C94420BDAAD
:10553000114A002AF0D0A342E4D962001219D10026
:105540000F4B1B685B18EAE72800FFF7C3FB280036
:10555000FFF766FB024B01221A700120B2E7C0463A
:10556000450C002050070020080700208807002075
:10557000CC0400208C07002000000000440C002018
:10558000640600208C7F001010B54378032B34D0C4
:105590002DD9042B61D0052B00D087E0544B1B780C
:1055A000DB072AD5524A137804218B431370514BE1
:1055B0001C68E269EFF3108172B61368002BFCD00F
:1055C000BFF35F8F21620100200001F069F9E269F9
:1055D000236ABFF35F8F0021116083F310880028D6
:1055E0000BD1A82244494548FFF780F805E0022B7B
:1055F0005CD13F4B1B78DB0700D410BD3C4B1A78C5
:1056000001218A431A701A7801318A431A700022E4
:105610005A701A7802318A431A70364B1C68E26954
:10562000EFF3108172B61368002BFCD0BFF35F8FCD
:1056300021620100200001F033F9E269236ABFF31F
:105640005F8F0021116083F310880028D5D1A82234
:1056500029492A48FFF74AF8CFE7254B1B78DB0793
:10566000CBD5234A137804210B431370214B1C68BC
:10567000E269EFF3108172B61368002BFCD0BFF320
:105680005F8F21620100200001F00AF9E269236ABC
:10569000BFF35F8F0021116083F310880028ACD125
:1056A000A82215491548FFF721F8A6E7114B1C68F9
:1056B000E269EFF3108172B61368002BFCD0BFF3E0
:1056C0005F8F21620100200001F0EAF8E269236A9D
:1056D000BFF35F8F0021116083F31088002800D092
:1056E0008BE7A82204490548FFF700F885E7C04684
:1056F000500700208C070020F87E0010A47F0010C7
:10570000F0B585B007000E00150001AC0A2200219B
:105710006B46981DFEF7B4FE2770667029002000C6
:10572000FFF732FF05B0F0BDF0B585B007000E0001
:10573000150001AC0A2200216B46981DFEF7A0FE61
:10574000277001236370267129002000FFF71CFFDA
:1057500005B0F0BDF0B585B007000E00150001AC36
:105760000A2200216B46981DFEF78AFE2770062349
:1057700063700822310002A8FEF788FE290020008D
:10578000FFF702FF05B0F0BDF0B5CE46474680B545
:1057900085B08146884617001E000CAB1D7801AC11
:1057A000062200216B46981DFEF76AFE4B462370C9
:1057B0000723637043462371A760667129002000A8
:1057C000FFF7E2FE05B00CBC90469946F0BD000024
:1057D00070B5CB789B079B0F022B1DD042D8012BB5
:1057E00057D12D4B9B78022B0BD02C4A0C794D793D
:1057F00007232B401B022343934205DCFFF7CCFA1F
:1058000070BD8022D200F1E79122D20024492548C0
:10581000FEF76CFF0020F3E71F4B9B78022B0ED0A6
:105820000A794C79072323401B021343402BE5D907
:105830001D4A1B491B48FEF759FF0020E0E70A7983
:105840004C79053323401B0213438022920093427C
:10585000D4D06F3AFF3AD20011491248FEF746FF02
:105860000020CDE70C4B9B78022B0FD040220C7907
:105870004D7907232B401B0223439342BEDD0B4A85
:1058800007490848FEF732FF0020B9E78022D2001E
:10589000EDE70020B4E7C04650070020FF030000FA
:1058A0006C7F0010A47F0010940400009B04000093
:1058B000F0B5CE4600B582B001900C0091461E00B6
:1058C000002515E0174A18491848FEF70FFF002772
:1058D000380002B004BC9146F0BD154A1249134885
:1058E000FEF704FFF4E7099A13702378E4180135F2
:1058F000A94514DD6378052BE4D1E3789B079B0F62
:10590000B342DFD121000198FFF762FF071EE4D008
:10591000A378DA09012AE6D0089A1370E5E701278F
:10592000D6E7C0465B040000587F0010A47F00103B
:105930005C04000070B57F260E40CD0972001D4B3F
:105940009B185B1920335C79E407E40F2ED1194BC7
:105950009B185B1920335B795B0728D4164B1868BA
:105960000121494201F06CF87200124B9B185B193F
:1059700020335B79DB0708D40E4B9B185B1920336F
:105980005B795B0702D4012400E00024002C08D0DE
:10599000760008498E19751920356B790422134356
:1059A0006B71054B186801F02BF800E00024200013
:1059B00070BDC0465007002088070020F0B5C646DD
:1059C00000B582B001937F250D40CE096F00174CC2
:1059D000E419A41920346479E4071DD46F00134C32
:1059E000E419A419203463790127BC4667463B4378
:1059F0006371019BFFF7F0F9002813D16D000B4B89
:105A00005D19AE192036737901229343737173794E
:105A100003329343737105E0054A06490648FEF7D1
:105A200065FE002002B004BC9046F0BD5007002087
:105A3000E10400007C7F0010A47F00107F230B4056
:105A4000CA095B000349C918891820314879C00781
:105A5000C00F70475007002070B57F240C40CD095F
:105A6000FFF7D4F96400064B1B195B1920335A79F0
:105A700002210A435A715A7901210A435A7170BDB1
:105A80005007002070B57F240C40CD09FFF7D2F9F4
:105A90006400064B1B195B1920335A7902218A4393
:105AA0005A715A7901398A435A7170BD50070020E2
:105AB0007F230B40CA095B000349C91889182031AC
:105AC00048798007C00F704750070020F0B583B0B9
:105AD00004000D00002000F061FB2B7860221340D1
