:020000041000EA
:1000000000B5324B212058609868022188439860DF
:10001000D860186158612E4B002199600221596106
:100020000121F02299502B49196001219960352056
:1000300000F044F80222904214D00621196600F024
:1000400034F8196E01211966002018661A6600F04E
:100050002CF8196E196E196E052000F02FF8012189
:100060000842F9D1002199601B49196000215960AB
:100070001A491B48016001219960EB211966A021F2
:10008000196600F012F800219960164914480160C1
:100090000121996001BC002800D000471248134993
:1000A000086003C880F30888084703B5996A0420EC
:1000B0000142FBD001200142F8D103BD02B5186610
:1000C0001866FFF7F2FF186E186E02BD00000240BE
:1000D000000000180000070000035F00212200005C
:1000E000F4000018222000A00001001008ED00E03C
:1000F00000000000000000000000000074B24E7A12
:1001000000200420F7010010C3010010C5010010F9
:10011000C1010010C1010010C1010010C101001097
:10012000C1010010C1010010C1010010C701001081
:10013000C1010010C1010010C9010010CB01001065
:10014000CD010010CD010010CD010010CD01001037
:10015000CD010010CD010010CD010010CD01001027
:10016000CD010010CD010010CD010010CD01001017
:10017000CD010010CD010010CD010010CD01001007
:10018000CD010010CD010010CD010010CD010010F7
:10019000CD010010CD010010CD010010CD010010E7
:1001A000CD010010CD010010CD010010CD010010D7
:1001B000CD010010CD010010CD010010CD010010C7
:1001C00000BE00BE00BE00BE00BE00BE00F04BF888
:1001D000103800BEF2EB8871F06E0010206F001036
:1001E0003402001090A31AE700202149086006C8D5
:1001F00081F3088810471F48006800282FD10DA4FC
:100200000ECC002902D000F012F8F9E71A491B4A77
:10021000002000E001C19142FCD1194988471949E9
:1002200088471949884700BEFDE701C901C29A42C3
:10023000FBD37047206F0010C00000209C040020FA
:10024000FC7200100000042000000420FC7200106A
:1002500000100420001004200000000070470B482C
:1002600003F05EF90047EFF30580C0B2704700006D
:1002700008ED00E0000000D0A0040020300E0020B7
:10028000251B001095040010011C0010575600009B
:1002900006005250ABB36053986A001006005250EB
:1002A000861C0302A86A0010060052505422A29D28
:1002B000B86A001005005250DE65F468FC72001048
:1002C000F8B5C0460448054B10B5834203D0044B33
:1002D000002B00D0984710BD9C0400209C040020F7
:1002E0000000000006480749091A8910CB0F591869
:1002F00010B5491003D0044B002B00D0984710BD17
:100300009C0400209C0400200000000010B5074C55
:100310002378002B09D1FFF7D5FF054B002B02D026
:10032000044800E000BF0123237010BDA005002099
:1003300000000000E85A0010054B10B5002B03D058
:100340000449054800E000BFFFF7CCFF10BDC046E0
:1003500000000000A4050020E85A001010B50400B9
:100360001F2100F04BF900220021200000F05EF96F
:100370000021200000F074F910BD0000002802D018
:10038000012802D070470248FCE70248FAE7C0465D
:10039000E85A0010F05A0010012801D101487047B6
:1003A0000148FCE7005B0010F85A0010304B1A6857
:1003B00001239340002953D0D022120653612D4BC4
:1003C0001A680123934000294ED1D02212065361AE
:1003D000294B1B681B03294A12685340E022D201B3
:1003E0001340274A1360274B04221A60234B1B68D3
:1003F000DB05FBD5214A53680380234B1B681B0395
:1004000012685340E022D20113401D4A13601D4B75
:1004100004221A60194B1B68DB05FBD5174A536889
:1004200043801A4B1B681B0312685340E022D20121
:100430001340134A1360134B04221A600F4B1B68BE
:10044000DB05FBD50D4B5B688380114B1A68D0230D
:100450001B065B68D3401A00012313408371704769
:10046000D02212069361AAE7D02212069361AFE769
:1004700080030020840300209403002000C0044077
:1004800000D0044000E00440BC0500208C030020A4
:1004900088030020F0B5CE4600B586B004F006F91A
:1004A0002C4804F0C7F805F0A1FA05F019FA2A4C17
:1004B000206800F0EDF82068012423008340D02557
:1004C0002D06AB620022012100F0B0F8234F3868FE
:1004D00000F0DEF8224E306800F0DAF83B682200C7
:1004E0009A406A6233689C406C6204F075F91D4B57
:1004F0001868FFF733FF1C4B1868FFF72FFF1B4BE3
:100500001868FFF72BFF1A4804F094F800251CE048
:10051000002504AC29002000FFF748FF2800FFF762
:100520002DFF039027886688A3889946A079FFF756
:1005300033FF01904B46009333003A0003990D4876
:1005400004F0A8F8FA2000F00FFF002DE0D10135EB
:10055000DFE7C0460C5B001088030020800300200A
:100560008403002090030020980300209C030020B7
:10057000305B0010505B001010B5024804F05AF8D0
:1005800010BDC046945B001000207047F8B50F0006
:1005900015001E0006AB1C880F4804F04BF839000C
:1005A0000E4804F077F829000D4804F073F8250090
:1005B00021000C4804F06EF80B4804F03BF80024CE
:1005C000A54205DD315D094804F064F80134F7E720
:1005D000074804F02FF8F8BDBC5B0010E45B001086
:1005E000FC5B0010145C0010285C0010405C0010E4
:1005F000485C001000487047505C001010B5830044
:10060000084A944663441C6840226240C024144057
:100610008022520113431C60C000034B9C4660447F
:10062000416010BD04C001400040014080000B4B00
:100630009C46604400290DD00823002A0CD10022DA
:100640001343026853400C2213408022520110438E
:10065000036070470023F0E70422F1E704C0014083
:10066000002909D18000094B9C466044C0239B01AE
:1006700018434023036070478000044B9C4660444D
:1006800080239B01184340230360F4E704C001402A
:1006900010B501238340D022120693629361052195
:1006A000FFF7ACFF10BD0000EFF3108072B6034BF4
:1006B0001B68002BFBD0BFF35F8F70472C0100D06D
:1006C000BFF35F8F024B00221A6080F310887047DF
:1006D0002C0100D070B505000E001400FFF7E4FFF8
:1006E000F208AA1815780721314001238B402B42CC
:1006F00005D1DBB22B431370FFF7E2FF70BD310071
:10070000200001F09FFAF0B583B0070001911400BA
:100710001E00FFF7C9FFB4420ED8E208BA181578D8
:100720000721214001238B402B4201D00134F2E705
:10073000DBB22B43137001E001246442FFF7C0FFDA
:10074000002C02DB200003B0F0BD019B002BF9D090
:10075000089801F077FA0000034B1B68022018404C
:10076000431E9841C0B2704700C00640002307E016
:10077000054A9A189200BFF35F8F00211160013380
:100780001F2BF5D97047C04640000034054A107849
:10079000431CDBB21370172B02D9130010221A70FE
:1007A0007047C046A003002000B583B00100044B91
:1007B00000931F2318220348FFF7A5FF03B000BDD5
:1007C000945C0010BC06002070B505000C000620EB
:1007D00001F04EFBC000210002F0F6FEC60908D071
:1007E0000E4B9E4217D87F23184001303400460834
:1007F00000E001246C62AE622C3580239B011D4316
:1008000000232B60062001F033FB8000A101891931
:1008100002F0DAFE70BD0026014CEBE7FEFF00009F
:10082000FFFF000000290AD180225200054B9C46A0
:100830006044434258414000034BC25270470A2271
:10084000F4E7C0460080FCBF680B002070B50500CF
:100850000C00062001F00CFB00282DD0174B9D4208
:1008600027D08022D203164B1A60164B1A60164B03
:100870009B6811009943FAD100212800FFF7D2FFAD
:1008800021002800FFF7A0FF2C002C34E96A602229
:100890004A406E21114080225201224311600B4BCD
:1008A0002B6380239B01234310221A600323AB6434
:1008B00070BD80221204D6E70020F9E700800340D3
:1008C00000E0004000F0004000C0004001030000D4
:1008D00070B505000C00080000F0D6FD200000F007
:1008E000BBFE0849200000F0FBFDFFF74FFF064B61
:1008F0009C466044800068602C75A400034BE55062
:1009000070BDC0461D0C001040000034340B0020A8
:100910000A4B1A68EFF3108172B61368002BFCD0F3
:10092000BFF35F8F054B1B68BFF35F8F00221A6018
:1009300081F3108840BF002000217047440B002045
:1009400010B5002922D003681B7B99421ED8174B93
:100950009C466144090183689C4661440C6849686F
:10096000002A19D003681B7B9A4215D883680F4868
:100970008446624412019A181068536802000120EC
:100980008B4201D80ED00020C0B210BD084B094ADE
:100990003B21094801F038F9054B064A3B2106483E
:1009A00001F032F9A242EFD8EDE7C046FFFFFF0F9A
:1009B000C05E0010085D0010C05F001010B5002977
:1009C0001FD0037B99421CD84B005B18033B046883
:1009D000A446634400291AD0002A1ED0914222D096
:1009E000002A26D0047BA24223D804685000801835
:1009F0000338201881701978002920D041701A70AE
:100A000010BD104B104A6921104801F0FDF8104B41
:100A1000104A70310D4801F0F7F80F4B0D4A712163
:100A20000A4801F0F1F80D4B0A4A7221074801F01B
:100A3000EBF8044B044A6921044801F0E5F81A7008
:100A4000DEE7C046185F0010C85C0010345F00107D
:100A50007C5F0010D45C0010885F0010945F001071
:100A600070B506000D00140000290BD0002A12D02A
:100A7000806873689847002806D12A00210030005A
:100A8000FFF79CFF200070BD220029003000FFF717
:100A900095FF2C00F6E70C00F4E7000070B5CE4699
:100AA00000B583B00500009201930AAB1C780BAB34
:100AB0001B789946002C28D003685A7B944209D1B0
:100AC0000123002B1BD1002C3DD1200003B004BC1E
:100AD000914670BD002C0CD01A7B944209D81A683C
:100AE00063001B19033BD3189B78002BE9D001232B
:100AF000E7E73F4B3F4A69213F4801F085F83F4B0C
:100B00003F4A65213F4801F07FF803689C7B002C39
:100B1000D9D012D01A7B94420FD862001219033A2E
:100B200019688C46624451789973002900D1D973B1
:100B30000023937053701370C5E72D4B2D4A692124
:100B40002D4801F061F8002C3BD02B681B7B9C42A8
:100B500037D82D4BE3181B01AA68944663440099CB
:100B6000019A19605A60089A9A60099ADA602E68A8
:100B7000002C2CD031D0337B9C422ED863001B1923
:100B8000033B32689446634400229A705A701A708C
:100B9000717B22003000FFF763FF7073844200D046
:100BA00093E7287D009A019B00F0E2FC061E02D02C
:100BB0004B46002B17D00C9B002B00D185E71E70F5
:100BC00083E7124B124A3B210E4801F01DF8114BEE
:100BD000114AA621084801F017F8054B054A69217A
:100BE000054801F011F82868210000F01FFFE2E736
:100BF000185F0010C85C0010345F00108C5D00109E
:100C0000405D0010C05F0010FFFFFF0FC05E0010CE
:100C1000085D0010BC5F0010E85C0010F0B5DE4617
:100C200057464E464546E0B58BB009908200BA4B18
:100C3000D7583D00A3E0B94BB94A3D21B94800F06F
:100C4000E3FFB94BB94A3B21B94800F0DDFF002B67
:100C500002D1002A00D0BCE00021604600F0DCFE9A
:100C6000A04219D13268736806920793B368994617
:100C7000F3689A464B46002B14D0002C18D02B68F2
:100C80001B7B9C4214D8631EEA68D35C08931B024A
:100C9000184328610020A4E0A64BA74A8C21A44851
:100CA00000F0B2FFA54BA44A9021A14800F0ACFF90
:100CB0009D4BA34A40219E4800F0A6FF00239A4680
:100CC000994600208DE02B69002B00D1A9E0434517
:100CD0001CD1069A079B10001900921BBB41994238
:100CE00002D804D1904202D901225242D317002BDC
:100CF00012DB0021049101310391029451460191CC
:100D0000494600912800FFF7C9FE30E08D4B8A4A22
:100D10009F21874800F078FF804B814A3D21814820
:100D200000F072FF002F02D1002E00D07CE02A6874
:100D3000002C00D1C7E0537B9C4200D0ACE00123E3
:100D4000002B00D0BFE0D37B002B00D0C1E0D473D8
:100D5000002C00D1D0E02B681B7B9C4200D9CBE05B
:100D6000013CEB689C4664442378013323700023E4
:100D70002B616A68BFF35F8F13608BF3108800F0FC
:100D80008FFB002900DA56E700230024069307941E
:100D90006A68EFF3108772B61368002BFCD0BFF3BC
:100DA0005F8F2B689C465C7B002C87D000D148E786
:100DB0001B7B9C4200D944E7634BE6183601AB68C5
:100DC0009846464432687368121A8B41002B00DC47
:100DD0003DE732687368099800F0CAFB00239A4621
:100DE00099466B68BFF35F8F00221A6087F3108803
:100DF0004B46002B00D185E0089B1B0223439846FD
:100E000051461800C84706000F006A68EFF3108BC0
:100E100072B61368002BFCD0BFF35F8F002F00DA8F
:100E200051E7002F00DC7DE72B69002B00D17EE726
:100E300043451FD100F034FB02000B1E20DB0100F4
:100E4000180092197B41984202D804D1914202D9EC
:100E500001225242D317002B18DB002104910131EB
:100E60000391029451460191494600912800FFF7F1
:100E700015FE7CE7334B304AA2212D4800F0C4FE1A
:100E8000264B274A3D21274800F0BEFE234B244A2B
:100E90003D21244800F0B8FE002C0ED0137B9C426C
:100EA0000BD863001B19033B11688C4663449B7885
:100EB000002B00D144E7012342E7244B244A692157
:100EC000244800F0A1FE244B244AF721214800F0D9
:100ED0009BFE002B0AD0117B8B4207D85900CB1800
:100EE000033B11688C4663445C7030E7174B184A2B
:100EF0006921184800F088FE0B4B114A40210C482C
:100F000000F082FE002800D039E70BB03CBC9046D0
:100F10009946A246AB46F0BD340B0020B45D0010EC
:100F2000B05C0010D05D0010C05E0010085D0010C5
:100F3000C05F0010145E0010585D00102C5E0010A1
:100F4000145D0010385E0010FFFFFF0F185F0010E7
:100F5000C85C0010345F0010745E0010F85C001074
:100F600010B50A4B5B68002B04D00A21084800F03A
:100F700093FB10BD054C2300064A1021206800F0A9
:100F800069FC03212000FFF7A3FCEEE7A403002087
:100F9000440B00204109001010B5064B5B68002B84
:100FA00001D0044810BD044B044A5C21044800F001
:100FB0002BFEC046A4030020F45E0010285D001044
:100FC000C05F0010F0B5DE4657464E464546E0B5D8
:100FD00089B0804616001F00129B994614AB1B78FF
:100FE0009A461F236B4400221A7033E000280AD06F
:100FF00042461268127B904205D8421E4146C9689B
:101000008A5C934646E0434B434A4021434800F004
:10101000FBFD32003B00361BAF41BB4202D804D17E
:10102000B24202D901267642F717002F12DA3C4B62
:101030003C4A3D213C4800F0E7FD394B394A3D210F
:10104000394800F0E1FD01246442E517002D4EDB34
:1010500026002F0043465B68EFF3108572B61C68CC
:1010600062425441E4B2002CF9D1BFF35F8F1F23D9
:101070006B440493002303930293139B01934B4609
:10108000009332003B004046FFF708FD031EADD140
:101090000022934641464968BFF35F8F00220A60F1
:1010A00085F31088002B28D01F236B441B78002B5E
:1010B00002D15A4614020443002B20D05346002B81
:1010C0001DD013992000C84704000D0003000B43F6
:1010D0001DD000299DDB00F0E3F90029ADDB2418C9
:1010E0004D41A942AFD8B1D1A042AFD9ABE70C4B2B
:1010F0000C4A3D210C4800F087FD01246442200089
:1011000009B03CBC90469946A246AB46F0BD0024CF
:10111000F5E7C046C05E0010145D0010C05F00100F
:10112000B45D0010B05C0010D05D001070B504001C
:101130004268EFF3108572B61368002BFCD0BFF342
:101140005F8FCAB22668737B9A421BD101200028A8
:1011500049D023698B422DD0090AC9B2002A2FD069
:1011600023681B7B9A422BD8531EE068C35C8B42DA
:101170002CD000206368BFF35F8F00221A6085F3D4
:10118000108870BD002A0DD0337B9A420AD85300D4
:101190009B18033B3068844663449B78002B07D13F
:1011A0000020D4E7134B144A6921144800F02CFDA9
:1011B0000120CCE7124B134AFE21134800F024FD16
:1011C000124B134A4021104800F01EFD1100300060
:1011D00000F02CFC0028CDD106210E4B094AFF312E
:1011E000094800F011FD23698B42C3D1002323611C
:1011F000C0E7C046185F0010C85C0010345F0010E4
:10120000985E0010745D0010C05F0010C05E00109A
:10121000145D0010BC5E0010F0B587B006000F0032
:10122000FFF721F800282AD106246442E517A41903
:101230007D41BD4202D803D1B44201D9002400252A
:10124000002D1FDB0494059500F02AF900291FDB0F
:10125000241A8D41002D21DDFFF79EFE002302930D
:101260000193254B0093049A059BFFF7ABFE0028E2
:1012700031DA3000390000F01FF907B0F0BD1F4827
:1012800000F0E0FC1E4B1F4A3D211F4800F0BCFC53
:101290001B4B1C4A3D211C4800F0B6FC002DE8D138
:1012A000002CD9D1E5E7002300E00023002BE0D19A
:1012B000164B1A68EFF3108172B61368002BFCD03E
:1012C000BFF35F8F114B1B68BFF35F8F00221A6063
:1012D00081F3108820BF0499059A0D4B5B6A9A42EE
:1012E000E3D80B48806A884203D29A42DBD00123BC
:1012F000DCE70123DAE7C04611090010F45F0010B3
:10130000B45D0010B05C0010D05D0010440B0020F4
:101310000040054070B504000D0000F0C1F8002940
:1013200010DB02000B00001969418B4202D804D186
:10133000824202D901204042C117002908DBFFF791
:101340006BFF70BD054B064A3D21064800F05CFC72
:10135000024B034A3D21034800F056FCB45D0010E7
:10136000B05C0010D05D001010B5FA22920000238E
:10137000002102F09FFFFFF7CDFF10BD70B584B0D4
:1013800005000C00FFF708FE002302930193194BA0
:1013900000932A002300FFF715FE061E12DC164BF1
:1013A0005B6A9C4209D8144A926AAA4208D29C42BB
:1013B00001D0012002E0002000E0002004B070BD58
:1013C0000120FBE720BFFFF7E7FD3100FFF7AEFE8E
:1013D000094B5B6A9C4209D8074A926AAA4207D223
:1013E0009C4201D00120E9E70020E7E70020E5E783
:1013F0000120E3E7110900100040054070B5EFF34C
:1014000005833F2018401038EFF3108472B6194B53
:101410001B68002BFBD0BFF35F8F012319008140B5
:10142000154A5163154A12781500C5402B4214D055
:10143000114B5D6A8300124E9B599D4206D3830077
:10144000104D5B598A430D490A7007E00A4A031D93
:101450009B0099589950002300E00023BFF35F8F51
:10146000044A0021116084F31088002B00D09847B3
:1014700070BDC046280100D000400540640B00202C
:10148000480B0020AC06002010B50100024A0348BA
:10149000FFF720F910BDC04660600010620B00200D
:1014A000044B596A00E01900024B986A5B6A994242
:1014B000F9D1704700400540084B5B6A01E0074BDB
:1014C0005B6A8B42FBD301E0044B5B6A8B4203D126
:1014D000024B9B6A8342F7D37047C04600400540E9
:1014E00070B504000D00EFF3108672B61B4B1B683D
:1014F000002BFBD0BFF35F8F002D1CD0200000F02D
:101500002FFD174B98420BD01900200000F030FD42
:101510000121200000F01CFD0123A340114A1360AB
:10152000A400114BE550BFF35F8F0C4B00221A60F3
:1015300086F3108870BDA2000B4B0021D150012210
:10154000A2400A490B7893430B700549200000F034
:1015500039FD0021200000F0FBFCE4E7280100D069
:10156000FD13001038600540AC060020640B00201D
:10157000F0B5DE4600B584B00500140001921E00EF
:101580000293FFF78DFF03948E422CD9EFF3108B5B
:1015900072B6294B1B68002BFBD0BFF35F8F274A25
:1015A00017780124AC40E3B23B431370244B5C63D7
:1015B0002A1D92000199D150AA0022490298505048
:1015C0001B6A23421BD11E4B1B6C234211D00020EF
:1015D000BFF35F8F184B00221A608BF3108804B0A2
:1015E00004BC9346F0BD8E4201D18442CED8012086
:1015F000F5E7154B154AC121154800F005FBFFF72B
:101600004FFF8E4214D802D1039B834210D80B4B5C
:101610001B78BB420ED00A4B1C625C631F222A401F
:10162000012393400B4A1360044B1F700120CFE746
:101630000020CDE70120CBE7280100D0640B00207B
:1016400000400540480B00208460001044600010FA
:10165000A860001080E200E010B5EFF3108472B6CD
:101660000A4B1B68002BFBD0BFF35F8F0123834025
:10167000074A136207490A789A430A70BFF35F8FDB
:10168000024B00221A6084F3108810BD280100D09C
:1016900000400540640B0020024B9C4661448900D9
:1016A000016070474000003470B504000D00FFF782
:1016B0006DF801002000FFF7EFFFFF232371657134
:1016C000BFF35F8F70BD10B50021FFF7EDFF10BDB8
:1016D00010B5FF21FFF7E8FF10BD0000034B9C464B
:1016E000614489000160BFF35F8F704740000034A0
:1016F00010B504000120FFF757F801002000FFF7A4
:10170000EDFF10BD10B500291FD0037B99421CD8F6
:101710004B005B18033B0468A446634400291AD0BD
:10172000002A1ED0914222D0002A26D0047BA24259
:1017300023D8046850008018033820188170197865
:10174000002920D041701A7010BD104B104A692139
:10175000104800F059FA104B104A70310D4800F053
:1017600053FA0F4B0D4A71210A4800F04DFA0D4B08
:101770000A4A7221074800F047FA044B044A6921DB
:10178000044800F041FA1A70DEE7C046185F001006
:10179000EC610010345F00107C5F0010F8610010F5
:1017A000885F0010945F001070B506000D001400F3
:1017B00000290BD0002A12D080687368984700284F
:1017C00006D12A0021003000FFF79CFF200070BDE9
:1017D000220029003000FFF795FF2C00F6E70C00EF
:1017E000F4E7000010B50023437301338373037BD8
:1017F000C3730123027B9A4214D9002B0CD0027BC5
:10180000934209D85A00D218033A01688C466244C0
:101810000133DBB25370EDE70B4B0C4A69210C48E6
:1018200000F0F2F9002A09D0924207D8016853006B
:101830009A18033A8A180023537010BD024B034ACA
:101840006921034800F0E0F9185F0010EC61001016
:10185000345F001010B5017342608360FFF7C2FF70
:1018600010BD000070B50400002901D1080070BD52
:10187000002934D0037B994231D84B005B18033BDD
:101880000268944663445A78002AEFD02DD0037B37
:101890009A422AD853009B18033B0068844663444D
:1018A0005D7800205870002925D0237B994222D8EA
:1018B0004B005B18033B206884466344002058704B
:1018C0002000FFF771FF060029002000FFF7CAFF84
:1018D000020031002000FFF767FF0100C6E7094B57
:1018E000094A6921094800F08FF9064B064A692127
:1018F000064800F089F9034B034A6921034800F0C8
:1019000083F9C046185F0010EC610010345F0010CE
:1019100070B505000C001600002928D02DD0037BDF
:1019200099422AD84B005B18033B026894466344F3
:101930005A78002A27D19A78002A2AD11978FFF7F5
:1019400091FF0300002E03D0EA7B002A27D1EC731D
:10195000002B37D1002C49D02B7B9C4246D82A68DB
:1019600063001C19033C14190023637070BD224BE3
:10197000224A3821224800F047F9224B224A6921A5
:10198000224800F041F9224B1C4A3A211C4800F041
:101990003BF9204B194A3B21194800F035F9002A40
:1019A0000AD0297B8A4207D851008A18033A29684D
:1019B0008C4662445470CAE7124B134A692113489B
:1019C00000F022F9002B0BD02A7B934208D8430069
:1019D0001B18033B2A689446634400229A70B9E7B7
:1019E000084B094A6921094800F00EF9054B064ADF
:1019F0006921064800F008F9606200100C620010CE
:101A000068620010185F0010EC610010345F001075
:101A10009C620010C462001070B504000A00457B8F
:101A20002900FFF775FF6073280070BD10B5040032
:101A3000002966D0437B8B420ED0002911D0037B56
:101A400099420ED84B005B18033B0268D01883788C
:101A5000002B0CD1002055E00121FFF7DDFF012014
:101A600050E0294B294A6921294800F0CDF8002B84
:101A70001FD0227B93421CD85A00D318033B226804
:101A8000D21813788B421AD0002B1BD0227B9342A2
:101A900018D85A00D318033B2268D21853788B42C7
:101AA00016D0002BF0D11B4B1B4A67211B4800F0BE
:101AB000ABF8154B154A6921154800F0A5F8437895
:101AC000137007E0104B114A6921114800F09CF88F
:101AD0004378537000238370437001222000FFF786
:101AE00017FF0200617B814205D02000FFF75CFEFA
:101AF0006073012006E00A4B074A6D21074800F099
:101B000083F8002010BDC046185F0010EC61001083
:101B1000345F00103862001020620010686200100C
:101B20004062001070B5264B264A1A60264B274AA1
:101B30001A60274B9A68254B9343FAD1254C01E054
:101B400008CC9847244B9C42FAD300F011F91E4B65
:101B5000224A1A601E4B9B68DB43DB01FAD1204B03
:101B600040229A675A671A67DA661E4C03E0200023
:101B7000FFF7A9FD08341C4B9C4206D26379002B69
:101B8000F5D02000FFF7A4FDF4E7184CA168184D2C
:101B9000C022280002F04EFCA560FEF764FB00287E
:101BA00000D000BEFEF7E2FD00F072FBFFF7D8F9AF
:101BB000104C01E008CC98470F4B9C42FAD370BD03
:101BC00000E00040BFCDFBFE00F00040FE7F3C0087
:101BD00000C000408804002098040020FFFFFF019F
:101BE00000F00140800400208804002000ED00E0A7
:101BF00000000020980400209C04002000BEFDE7A7
:101C000010B5FFF7FBFF000010B582B00C00190003
:101C1000002A0CD0084B002A0BD00192009323001D
:101C20000200064802F036FD0120FFF7E7FF044BF3
:101C3000F1E7034AF1E7C046E8620010F8620010DD
:101C4000C86E00100FB400B583B0084802F0F2FC73
:101C5000049B002B07D005A90191180002F0F8FCA5
:101C6000034802F0E7FC0120FFF7C8FF28630010DB
:101C70002C5B0010F0B5DE46574680B583B00700F8
:101C80000E0092460A9A93424CD3190E01911B0200
:101C9000180000930A9A002301F0D8FC05007B008D
:101CA000DB199C002D4B9C4664446368834200D240
:101CB00060603B1FDBB29B46012B39D9C0239B01DF
:101CC0002343802212011A60BB00254A995800293B
:101CD00005D0506901F078FC01300138FDD1534640
:101CE0005B0122685340E0221340802252012243CC
:101CF00013605B46012B26D980239B01234380225E
:101D000012011A6065602A0000230098019901F011
:101D10009DFCBF00124BF850012003B00CBC924652
:101D20009B46F0BD0F4B104A2D211048FFF76CFF6A
:101D3000012EC3D1C0239B01234303221A60A36851
:101D4000DB07FCD5CBE72168714003230B40136010
:101D5000A3680122B2401A42FAD0CDE700800040C9
:101D6000C006002048630010386300105C63001058
:101D700030B583B00C2000F023FBFEF7EDFC00280B
:101D80000DD0002304E099002D4A2E4888500133DD
:101D9000092BF8D92A4B2C4A5A6203B030BD2B4B81
:101DA00000229A6700F014FB294B01221A60274B8E
:101DB0005B6C012BFBD1274B03221A60234B9B6BDF
:101DC000012BFBD1022400940533234A012123482F
:101DD00000F06AFA00940523214A0121214800F00D
:101DE00063FA214B0093002202210420FFF742FFF7
:101DF0001E4D00952B00002201210520FFF73AFF20
:101E0000104C00942300002200210720FFF732FF2E
:101E100000942300002200210820FFF72BFF0A4B2B
:101E200000932300002200210920FFF723FF0095E3
:101E30002B00002200210620FFF71CFFADE7C04663
:101E4000C0060020006CDC021BB7000000800040D0
:101E50003CB0004030B00040002F68590080024084
:101E600000389C1C00C00240001BB700405973079B
:101E70008000014BC0587047C0060020074B9B688C
:101E8000103080001950BFF35F8FBFF35F8F044B9A
:101E90000021196082F310887047C04600ED00E011
:101EA000240100D010B5091A04394808090B05D1DE
:101EB0004005400D044B184380B210BD034B044A4B
:101EC0008C210448FFF7A0FE00E0FFFF90650010A2
:101ED000B8630010A065001010B5091A04394C0849
:101EE000090B08D14905490D064A11430180064BEB
:101EF0002343438010BD054B054A94210548FFF755
:101F000083FEC04600F0FFFF00F8FFFF9065001061
:101F1000C4630010A065001001238340034A1068C9
:101F20001840431E9841C0B27047C04600E100E02F
:101F3000002902D1034B18607047034B1860034B14
:101F40001860F9E780E100E080E200E000E100E0F5
:101F500010B5012383401800FFF7EAFF10BD000011
:101F6000024B9B6810308000C058704700ED00E0C5
:101F700070B504000D00EFF3108672B60C4B1B68B1
:101F8000002BFBD0BFF35F8F2000FFF7E9FF094B69
:101F9000984201D0A84205D1320029002000FFF765
:101FA0006DFF70BD044B054A70210548FFF72CFEFC
:101FB000240100D0CD010010586500109C63001072
:101FC000A0650010F0B5CE4600B584B001900D00BC
:101FD000EFF3108672B65A4B1B68002BFBD0BFF391
:101FE0005F8F584B9A68019C1034A300D758564B0A
:101FF0009F4200D19FE0AF4200D19EE00297534B39
:10200000FB1A2F2B08D9320039000198FFF736FF51
:1020100004B004BC9146F0BD0198FFF77DFF03902A
:1020200000210198FFF794FFBFF35F8FFEF71BF9C4
:10203000002801D084421AD10123029C9C43230032
:1020400042495B1A5B414B495943090D4BB29C46CF
:102050000023A168A94212D00622A256002A0DDB55
:1020600053009B189A002300384CA418F1E7202154
:10207000374B384AFF313848FFF7C6FD2300A942E5
:1020800052D10622A2569146002A38DB52004A4419
:1020900091002E4B5B189A68A260DA79E2710622F1
:1020A0009A56A2719B795BB2002B12DABD20000216
:1020B000A0804B465B004B449A00244B9B18274A58
:1020C000117899714B46137003990198FFF740FFFF
:1020D00099E7201D1D4A8B181A1D9B88D90A1C29B7
:1020E00007D159054915023149005118FFF7DAFEA9
:1020F000DEE71B4B1B4A9A211748FFF785FD002896
:102100000DD1002B09D0FF229A71174A9A80134BE8
:102110001A78A27162461A70D6E70B4FF7E7201DB6
:102120001249FFF7D9FECFE7AA21114B094A49000E
:102130000948FFF769FD044F65E7034F63E7C046B1
:10214000240100D000ED00E0CD010010CC03002000
:102150002C650010EC630010A0650010630B0020DC
:10216000E0640010DC63001000BDFFFF06040020E7
:1021700050650010AAAA000010B5032304009C4378
:10218000064A9446644422681840C000FC338340E9
:102190009A4381401143216010BDC04600E400E035
:1021A000F8B50400012606432D4BF31A2F2B28D82F
:1021B000FEF759F800282BD0EFF3108572B6294BA3
:1021C0001B68002BFBD0BFF35F8F230024495B1AF1
:1021D0005B412E495943090D49B2234B9B6880004E
:1021E0001B58B3421BD00023032B32D85A00D218FD
:1021F00090001B4A1218927952B28A421FD00133C2
:10220000F2E77221194B1A4AFF311A48FFF7FCFC1A
:10221000BA21194B164A49001648FFF7F5FC124B34
:102220009B68164A1A50164B1A78A2711970BFF3A0
:102230005F8F0C4B00221A6085F31088F8BD0848A8
:102240005A00D718BE008619FF27B7710D4BB3800F
:10225000E9E786210C4B064AFF310648FFF7D4FC1C
:10226000CC030020240100D000ED00E0F864001051
:1022700000640010A065001020650010CD01001062
:10228000630B002000BDFFFF38620010AAAA000007
:1022900010B5002404E080212000FFF76DFF013419
:1022A0001F2CF8D910BD0000F0B583B004000191D7
:1022B00017001E000C2001F087F905004201121AD8
:1022C00093019B1ADB001B189901380001F07CF97F
:1022D0000200103A98235B009A4232D8731E062BF4
:1022E00035D8089B013B062B31D8089B9E4234D33E
:1022F0003F09AF4237D33304089A16031E432368BD
:10230000002B36DB244B9C4242D080214901234BD9
:102310001960234B1960234A92680B009343FAD14A
:10232000019B2360A060221DC0239B011343212237
:102330001A602268002AFCDAE66008221A6003B0FC
:10234000F0BD194B194A16211948FFF75DFC194BCE
:10235000164A19211648FFF757FC174B134A1F213D
:102360001348FFF751FC154B104A22211048FFF784
:102370004BFC22683F231340019A9342C2D1A368C9
:102380001B051B0D8342BDD1E368002EBAD1D6E7F1
:1023900080218901BBE7C04600C0024000E0004048
:1023A00000F0004000C00040E8650010DC6500104F
:1023B00004660010406600108C660010A4660010D1
:1023C00080239B001843014BD86270470080054072
:1023D000064BAA2212011A602F22DA60044B054A2A
:1023E0001A60024B5B68002BFBDA7047004002402A
:1023F0000060024000B0FA00704710B5002802D01B
:102400000B684968984710BD002307E09A00D3186D
:102410005A004B1C03600B789B18303B01680A780C
:10242000303AD2B2092AF1D918007047F0B5D64631
:102430004F464646C0B582B00500009190460193D4
:102440000A9B99460B9C0C9E0D9B9B0712D04E46F7
:102450000C9B994618E0541C019B00992020A8472A
:1024600001372200B742F6D354460C964E460C9BD9
:10247000994609E02700A246F4E7013C571C305D6D
:10248000019B0099A8473A00002CF6D14E460D9BBF
:102490009B070AD5474605E0541C019B0099202064
:1024A000A8472200D31BB342F6D3100002B01CBCD5
:1024B00090469946A246F0BDF0B5CE46474680B557
:1024C00087B0049205930E9E0F9C10AD2B78994611
:1024D000129F139B149DAA071CD4002B0CD0EA0753
:1024E0000AD54A46002A02D10C322A4204D0013BC6
:1024F00002E0302232550134BC4205D21F2CF8D9FB
:1025000002E0302232550134EA0703D59C4201D261
:102510001F2CF6D9EA0615D56A0505D4002C03D080
:10252000BC421CD09C421AD0119A102A23D0119A76
:10253000102A28D0119A022A2DD01F2C02D8302719
:10254000375501341F2C2FD84A46002A29D16A0753
:1025500037D42A0728D520273755013424E0671EB1
:10256000002F06D0119A102A01D03C00DCE7023C73
:10257000DAE73C00D8E7AA06D9D41F2CD7D87827A9
:1025800037550134D9E7AA06D4D51F2CD2D85827FD
:1025900037550134D1E71F2CCFD862273755013486
:1025A000CBE72D273755013403950293019400960C
:1025B000059B049AFFF73AFF07B00CBC904699467A
:1025C000F0BD2B2737550134EEE7F0B5C64600B510
:1025D00094B0089009910A920B931AAB10CB1B7818
:1025E00098461F9D002C01D110239D438027FF009A
:1025F0002F4016D0002C20D0002712E0AA061AD5B2
:102600004121C918C9B20A39C9B27E1C0CABD955CF
:102610001C99200000F0D8FF041E0FD01F2E0DD8EB
:1026200037001C99200000F0CFFFCBB2092BE5D872
:102630003033D9B2E9E76121E3E7002606951E9B16
:1026400005931D9B04931C9B0393434602930196A1
:102650000CAB00930B9B0A9A09990898FFF72CFF83
:1026600014B004BC9046F0BDF0B5D6464F4680B5D8
:1026700099B00C900D910E920F93209C219D22AB4E
:102680001B789A46249B0A93259B0B93289B99467B
:1026900023002B4303D110334A469A4391468026A8
:1026A000F6004B461E4007D023002B4331D00026B6
:1026B00037004E4609941BE037004E46099417E058
:1026C000B20621D54122D218D2B20A3AD2B27C1C2B
:1026D00010ABDA550A9A0B9B0998290000F0B6FF57
:1026E00009900D000B00034315D01F2C0ED82700B6
:1026F0000A9A0B9B0998290000F0A8FFD3B2092B76
:10270000DED83033DAB2E2E76122DCE72700B146F7
:1027100003E0002701E02700B1464B460693279BC4
:102720000593269B04930A9B0393534602930197B8
:1027300010AB00930F9B0E9A0D990C98FFF7BCFEFF
:1027400019B00CBC91469A46F0BD0000F0B5DE46CB
:1027500057464646C0B592B0089006910992079335
:102760001A9C1B9D22002B002000290001F0FBF980
:10277000002800D0EAE001225242D34B2000290079
:1027800001F0ECF9002800D0E0E001225242CF4BEA
:102790002000290001F0CCF9002800D0D6E000226A
:1027A00000232000290001F0C3F9002800D0E3E055
:1027B00022002B000A920B938023DB001E9A1A4002
:1027C0009246131E01D106331C930A980B990200FE
:1027D0000B000C920D9303000A00024300D1D3E0DA
:1027E0000A00100D4005400DB94EB4466044120376
:1027F000120B1E00B74B13431F0001F0C7F9B64A76
:10280000B64B01F052F9B64AB64B01F027F90C90DD
:102810000D910022B44B3000390001F016F9B34A93
:10282000B34B01F042F902000B000C980D9901F036
:1028300015F901F0C3F9804601F0A8F9AD4AAE4B95
:102840000C900D9101F031F90022AC4B01F006F92A
:1028500001F0B4F90700AA4AAA4B0C980D9901F0AF
:1028600024F90C900D91380001F090F9A64AA74B7D
:1028700001F01BF902000B000C980D9901F0E5F82E
:1028800002000B001090119101F00FF90E900F91C2
:102890009F4BFB181B050D9300230C93109E119F5B
:1028A00032003B003000390001F0D8F8109011914F
:1028B00032003B0000208021C90501F0C6F8060067
:1028C0000F000022934B0E980F9901F0D0F80022D0
:1028D000914B01F0C3F802000B000E980F9901F024
:1028E000C6F800228D4B01F0B9F802000B000E98DB
:1028F0000F9901F0BCF802000B003000390001F024
:10290000ADF802000B001098119901F0B0F8002208
:10291000704B01F0A3F80C9A0D9B01F0C6F806006D
:102920000F000C900D910A9A0B9B01F017F90028EB
:102930002CD001235B429C46E0440022764B3000C1
:10294000390001F094F80C900D911FE01E9B049348
:102950001D9B03931C9B029322002B00009201936A
:10296000079B099A0699089800F002F912B01CBC5E
:1029700090469A46A346F0BD0A9480231B069C46C7
:10298000AC4463460B9317E70023984643466333F2
:10299000C62B22D804271E9B1B052AD50C9A0D9BFB
:1029A0001900114311D05E4A5E4B0A980B9901F051
:1029B000CDF8002800D1BBE000225B4B0A980B99B0
:1029C00001F0B6F8002800D1B2E01C9B434506DDBB
:1029D00042469E1A731E1C9303E00527DBE7002383
:1029E0001C938023DB001E9A1A431E9200270023AB
:1029F00098461D9B9F4200D3A6E0DB1B9B4602230B
:102A00001E9A1A40924603D0002F01D000239B4605
:102A10004346002B07D00C9A0D9B0A980B9901F0A6
:102A200026F80A900B91002200232000290001F0D3
:102A30007FF8002800D08AE03C4B1E9A1340049394
:102A40005B4603931C9B02930A9B0B9C009301948F
:102A5000079B099A0699089800F08AF8002F00D180
:102A600084E71E9B9B0600D47DE04524451C079B04
:102A7000020006992000089CA0474046C217811812
:102A80005140C30F7A1E0520059004920022039244
:102A90000A32029201930091079B2A0006992000B6
:102AA000FFF793FD5346002B00D15FE70200089D1E
:102AB000099C131B1D998B4257D2561C079B0699E4
:102AC0002020A8473200F4E7FFFFEF7FFFFFEFFF72
:102AD00001FCFFFF0000F03FFB799F501344D33F00
:102AE000B3C8608B288AC63F0000F83F61436F631C
:102AF000A787D23F71A379094F930A400000E03FB6
:102B00001655B5BBB16B0240EF39FAFE422EE63FD7
:102B1000FF03000000002C4000002440000018408B
:102B20002D431CEBE2361A3F80842E41FFF7FFFF56
:102B30001C9B002B00D15CE75346002B00D158E7CB
:102B40001C9B013B1C9354E700239B4657E70A9CC0
:102B50000B9D2200290080200006844661440B0062
:102B60000A920B9368E7652480E71000FEE6C046F2
:102B7000F0B5D646474680B597B0069007910892C3
:102B80000993209F1E9A1F9B1000190000F0EBFF75
:102B900000282AD101225242BB4B1E981F9900F0F7
:102BA000C7FF002830D101225242B84B1E981F990E
:102BB00000F0D4FF00283AD00423229A134032D0E8
:102BC000B34A002B31D10323229903912199029119
:102BD00001930092099B089A07990698FFF726FC33
:102BE00017B00CBC90469A46F0BD229B0393219BE4
:102BF000029303230193A74B0093099B089A07991B
:102C00000698FFF713FCEBE7229B0393219B0293AB
:102C100004230193A04B0093099B089A07990698F7
:102C2000FFF704FCDCE79D4ACBE70423CCE7002256
:102C30009B4B1E981F9900F091FF002817D100228E
:102C4000984B1E981F9900F073FF00280FD10022A7
:102C500000231E981F9900F06BFF002817D1002356
:102C60009A46229B5B0500D47DE000261FE0229B54
:102C70000493219B039302971E9B1F9C0093019436
:102C8000099B089A07990698FFF760FDA8E71E9A26
:102C90001F9B0020002100F0D8FE1E901F910123F1
:102CA0009A46DEE70EAB30229A55013F01361F2EC1
:102CB00001D8092FF6D81E981F9900F07FFF040055
:102CC00000F064FF02000B001E981F9900F0BDFE8B
:102CD000FA00754B9B181A685B680C920D9300F014
:102CE000E4FE0A900B9100F08DFF050000F04AFF12
:102CF00002000B000A980B9900F0A7FE0A900B91B6
:102D000000226A4B00F02AFF00282ED0013528004F
:102D100000F038FF02000B000C980D9900F00EFF38
:102D2000002801D001340025002F2CD1200000F014
:102D30002DFF02000B001E981F9900F086FE002256
:102D40005A4B0A900B9100F0F3FE002841D100226B
:102D5000564B0A980B9900F001FF002839D1E30780
:102D600037D5013435E006277FE700224F4B0A981C
:102D70000B9900F0DDFE0028D6D1002D01D0EB0725
:102D8000D2D50135D0E70A941F2E10D8013F0A2171
:102D9000280000F019FC741C30310EAB99550A2143
:102DA000280000F011FC051E25D02600ECE70A9C47
:102DB00004E00EAA302191551F0001361F2E02D8C3
:102DC0007B1E002FF5D11F2E03D80EAB2E229A5555
:102DD00001361F2E14D80A21200000F0CDFB751CEF
:102DE00030310EAB99550A21200000F0C5FB041EBE
:102DF00005D02E00EDE7A0460A9C4646DEE72E00F1
:102E00000323229A1340012B16D01F2E06D85346B7
:102E1000002B28D00EAB2D229A550136229B03930E
:102E2000219B029301960EAB0093099B089A079988
:102E30000698FFF7FBFAD3E6219B002B0DD05346F3
:102E4000002B02D10C33134207D0219B013B21936D
:102E500003E00EAB30229A550136219B9E42D4D21C
:102E60001F2EF6D9D1E7229B5B0704D50EAB2B2290
:102E70009A550136D2E7229B1B07CFD50EAB2022F5
:102E80009A550136CAE7C046FFFFEFFFFFFFEF7F0D
:102E9000A0680010AC680010B0680010A8680010AE
:102EA00065CDCD4165CDCDC1B86800100000E03FD3
:102EB000F0B5DE4657464E464546E0B595B00600AD
:102EC0000B9115001393002900D1FCE20027139BFE
:102ED0001878002800D1F8E2252809D07C1C2B00A6
:102EE0003A000B99B047139B013313932700EEE789
:102EF0000133139300241DE00B00303BDBB2092BA0
:102F000037D92A293AD000239A46139B1A782E2AB9
:102F100044D000230C93139A1378683BD9B212293A
:102F200000D980E08B00D049CB589F4601231C4339
:102F300001321392139A11780B00203BD8B210285B
:102F4000DAD88300C948C3589F4602231C43013284
:102F50001392EFE704231C4301321392EAE708239C
:102F60001C4301321392E5E710231C4301321392F4
:102F7000E0E713A8FFF748FA8246C6E71E9B1A1D32
:102F80001E921B68002B04DB9A46139B013313939C
:102F9000BBE7022214435B429A46F6E78022D20046
:102FA00014435A1C13925A781300303BDBB2092B9E
:102FB00004D92A2A07D000230C93ACE713A8FFF703
:102FC00023FA0C90A7E71E9B1A1D1E921B68002B6C
:102FD00004DB0C93139B013313939CE70023F8E766
:102FE00080235B002343511C139152786C2A01D03B
:102FF0001C0018E0C0239B001C430131139112E018
:1030000080232343511C13915278682A01D01C005D
:1030100009E0C0231C430131139104E080235B00CD
:103020001C4301321392139B18780300253BDAB23C
:10303000532A00D93DE293008D4AD3589F468023FE
:103040009B001C4301321392EDE780235B001C437D
:1030500001321392E7E778280AD058283BD06F282E
:103060003CD062283DD010239C43063B9C4601E0A7
:1030700010239C46582837D0692803D0642801D0F3
:103080000C229443630501D50122944369282ED074
:1030900064282CD0A30500D5A5E0E30500D5BFE04A
:1030A000630600D4D2E01E9A111D1E911168FF2202
:1030B0000A400594534604930C9B03936346029382
:1030C0000023019300922B003A000B993000FFF788
:1030D0007CFA07002BE010239C46CBE708239C4694
:1030E000C8E702239C46C5E720221443C4E7A30592
:1030F00021D4E30551D4630668D51E9A111D1E9193
:103100001168FF220A40D317D1185940D20F0594F5
:10311000534604930C9B03936346029301920091E0
:103120002B003A000B993000FFF74FFA0700139B72
:1031300001331393CBE61E9BDA1D07218A4311004E
:1031400008311E91116853689846DB17109311934C
:10315000109A119B100048400E90190040464140C3
:103160000F910E980F99801A99410E900F91434636
:10317000DA0F0894534607930C9B06936346049317
:10318000002305930292009001912B003A000B99C5
:103190003000FFF769FA0700C9E71E9A111D1E915A
:1031A0001268D317D1185940D20F0594534604938F
:1031B0000C9B039363460293019200912B003A000B
:1031C0000B993000FFF701FA0700B0E7230605D599
:1031D0001E9A111D1E910023D25E94E71E9A111DA6
:1031E0001E9112688FE71E9BDA1D07218A4311008A
:1031F00008311E91536812680092019300220894CE
:10320000534607930C9B06936346049305920292E0
:103210002B003A000B993000FFF726FA070086E7EB
:103220001E9A111D1E911368009305945346049332
:103230000C9B039363460293002301932B003A00F7
:103240000B993000FFF7C1F9070070E7230606D598
:103250001E9A111D1E9112681204120C29E71E9A63
:10326000111D1E91126824E7C06600100C67001043
:103270005067001046281AD01E9B0733072293433D
:103280001A0008321E921A685B6800920193049437
:10329000534603930C9B02932B003A000B9930008A
:1032A000FFF766FC0700139B013313930FE62023FF
:1032B0001C43E1E7672801D0472802D180231B0186
:1032C0001C43452801D0472801D120231C431E9BC5
:1032D0000733072293431A0008321E921A685B686C
:1032E000009201930494534603930C9B02932B008A
:1032F0003A000B993000FFF729FA0700139B0133BE
:103300001393E4E502232340994622D001239846F3
:103310001E9B1A1D1E927C1C18782B003A000B99DC
:10332000B0474B46002B1AD1139B01331393270050
:10333000CDE5571C0C9B0B992020A84723003A0091
:103340005C1C9E42F5D8B2461700A0462E000C9D8C
:10335000DEE701233A000C9535005646F0E72200DF
:1033600043460C953500564606E0571C0C9B0B99BE
:103370002020A84723003A005C1C9E42F5D8140088
:103380002E000C9DD0E71E9B1A1D1E921B689B46AB
:103390000C9B002B21D1012252425B4601E00133FC
:1033A0000A001978002902D0511E002AF7D15A4686
:1033B0009B1A98468023DB002340994603D00C9B40
:1033C000984500D9984602232340129307D03A002B
:1033D0005C4637004E460D951FE00C9ADDE73A003B
:1033E0004346370056460D9506E0551C0D9B0B993C
:1033F0002020B84723002A005C1C9E42F5D8B24624
:103400003E00A0465C4637004E4606E00C93013471
:10341000551C0D9B0B99B8472A002078002805D031
:10342000002EF4D00C994B1E0029EFD13E0017005E
:103430000D9D129B002B03D1139B0133139346E583
:1034400043460C953500564606E0571C0C9B0B99DD
:103450002020A84723003A005C1C9E42F5D81700A4
:103460002E000C9DE8E7212323431E9A111D1E9177
:10347000126800920593082304930C9B0393102376
:103480000293002301932B003A000B993000FFF7C1
:103490009CF80700139B0133139318E57C1C2B0049
:1034A0003A000B992520B047139B01331393270053
:1034B0000DE57C1C2B003A000B99B047139B0133A0
:1034C0001393270003E5094E00E5AF420CD36A1EB3
:1034D0002B000B990020B047380015B03CBC90463B
:1034E0009946A246AB46F0BD3A00F1E7F923001039
:1034F00000B585B0029003910121009313004A4268
:1035000002A90248FFF7D4FC05B000BDFB23001060
:1035100001480421014B18472004002041350010C8
:1035200010B5010018231B8814221088984710BD7D
:1035300010B5010018231B8816221088984710BD6B
:10354000F0B5C64600B507000E00002501239846D9
:1035500000E00135B5420AD2AC003C192068FFF703
:10356000DFFF20600028F4D100239846F1E74046B1
:1035700004BC9046F0BD0000124A936F9B0815D220
:103580009066D166002905D0FFE7FFE7FFE7516F9E
:10359000106F704704B580210906C21751400028FA
:1035A00000D0C84302F080FA002104BDF0B5146ECB
:1035B000556E576F166FFFF7E3FF14665566576732
:1035C0001667F0BD000000D0114A936F9B0813D21C
:1035D00010665166002905D0FFE7FFE7FFE7516F4E
:1035E000106F704704B5002801D00020C04302F0DE
:1035F0005BFA002104BDC046F0B5146E556E576FDE
:10360000166FFFF7E5FF1466556657671667F0BD3E
:10361000000000D094464E4A926F9208624601D252
:1036200030E0C046F0B54A4EB56F6D08FCD3346E3D
:10363000756E776F366F00F025F89446444A14662D
:103640005566576716676246F0BDC0469446404AC5
:10365000926F9208624601D258E0C046F0B53C4EE7
:10366000B56F6D08FCD3346E756E776F366F00F0F2
:103670004DF89446364A1466556657671667624693
:10368000F0BDC046002B24DB11D000293EDA00B586
:10369000C943404200D1013100F038F8C9434042EB
:1036A00000D10131DB43524200D1013300BD002A79
:1036B000EBD1002801D1002905D00020C90FC9078E
:1036C00001D1C043410800B502F0E6F90022002311
:1036D00000BD00B500290ADBDB43524200D10133B3
:1036E00000F014F8C943404200D1013100BDC94384
:1036F000404200D10131DB43524200D1013300F09E
:1037000005F8DB43524200D1013300BD002923D12B
:10371000002B18D1002A0CD0BC460D4F38667A66B3
:1037200000210023FFE7FFE7FFE77A6F386F674666
:103730007047002801D00748010000B502F0ACF93D
:103740000022002300BD02000B0000200021704772
:10375000000000D0FFFFFFFF002B00D0BDE0130CE6
:1037600026D1002AE7D080B4104F39667A66FFE789
:10377000FFE730B4040C7B6F396F1B0423433B66B7
:10378000FFE7FFE7FFE7C04684B27B6F3D6F1B0496
:1037900023433B66FFE7FFE7C04600232C042D0CC4
:1037A0007A6F386F00196941B0BC7047000000D0D3
:1037B000F0B594460025140E01D112020835140FFD
:1037C00001D112010435940F01D192000235D40FBA
:1037D00001D152000135D40B0134254F7C66254CB4
:1037E0003C660E0C93B2FFE7FFE7FFE73C6F6643D2
:1037F000360C7703BE467343DF0B5B04C01AB94136
:10380000130C7343DB18C91ACE086643360CB64452
:1038100093B273431F0F1B01C01AB941130C7343BA
:103820001F0B1B05C01AB941860D8F023E4366432C
:10383000360C092D24DB520A7243801A7703460A9C
:103840006643360C16235B1BDE40DF40BF1964461F
:103850006643821B7046043506330100D940A840F8
:10386000C01900D30131A24206D20023F0BD0000EE
:10387000000000D0FFFFFFFF121B0130F3D3F1E780
:1038800009277F1BFE406446A2B27243801A00D211
:103890000139220C7243130C1204821A99410B0055
:1038A0007046043513370100F940A840801900D351
:1038B0000131002B02D1A2420AD2F0BD013000D367
:1038C0000131121BFAD2013BF8D1A24200D2F0BD65
:1038D000013000D30131121BF7E7F0B51C0C00D00A
:1038E00080E00CB400251C0A04D11B02160E3343E1
:1038F000120208351C0B04D11B01160F33431201B1
:1039000004359C0B04D19B00960F33439200023583
:10391000DC0B02D192185B4101351C009718644101
:103920000134464F7C66464C3C660E0CFFE7FFE7D1
:10393000FFE7C0463C6F6643360C7703BE4697B23E
:103940007743C01B00D20139C01B00D201399FB29E
:103950007743C91BC91B170C77437E04FF0B801BE1
:10396000B941CE086643360C0C2D33DBB644120B3E
:103970001F053A431B0B97B27743C01B00D2013996
:103980009FB27743C91B170C77433E043F0C801B43
:10399000B941860D8F023E43664329277F1BFE40B7
:1039A0000C3D7746AF40BF1930BCA2B2ABB27243F8
:1039B0007343801A9941220C7243130C1204801A2B
:1039C000994102000B000137001BA941F9D2781E72
:1039D0000021F0BD0C277F1BFE4077467F0BAF40D8
:1039E000FF19E0E700245D1C07D0144F7D6639669F
:1039F000FFE7FFE7FFE7FFE73C6F95B29EB2654345
:103A00006643401BB141150C1E0C654366433604EA
:103A10002F0C3E432D04401BB141994204D20200B9
:103A20000B0020000021F0BD01D19042F7D3801A95
:103A3000994101349942F2D3F6E70000000000D02A
:103A4000FFFFFFFF48404140484018B41B4B5B68F4
:103A5000FC46019308BD04DF0F3D001018B4174B5E
:103A60001B68FC46019308BD00DF193D0010944619
:103A7000134A926F920809D2624618B40F4BDB6862
:103A8000FC46019308BD0CDFD13F00100C4AF0B595
:103A9000146E556E576F166F6246FFF7EEFF084AB9
:103AA0001466556657671667F0BD18B4034B9B68DC
:103AB000FC46019308BD08DF753E00106C0B00202A
:103AC000000000D0FFB550404240504059404B40AC
:103AD000594000E0FFB5154F4C00640D03D0BC42C7
:103AE00004D10C0314D80020090D09055C00640DF5
:103AF00003D0BC4204D11C030AD800221B0D1B05B5
:103B000001264B4009D44B4003D58B4200D1824261
:103B1000FFBD9942FCD19042FFBD0B43DB1803432C
:103B20001343F5D0C9434918FFBD0000FF0700004B
:103B300000B5FFF7CFFF804100BDC04600B5FFF7DD
:103B4000C9FF01D9002000BD012000BD00B5FFF76D
:103B5000B9FF01D9002000BD012000BD00B5FFF76D
:103B6000B1FF804100BD012040054A00121804D871
:103B70005A00121801D80020704701207047002019
:103B8000704700000021002805D17047C117484048
:103B9000401AFAD0C90713B5064B1B6898470CBCEE
:103BA000441CA2401005120B0349091B09051943C7
:103BB000114310BD6C0D00201F04000010B54C0017
:103BC000620D8023D218DB00D21A5B057E2A10DD3D
:103BD0009E3A13DACC170903490819435242D140DF
:103BE000640001341532202A05DAD04008436043CE
:103BF00010BD002010BD0846604310BDC80FC0189E
:103C0000013810BD18B4044B5B6AFC46019308BD33
:103C100024DFFD41001000006C0B002070B5132361
:103C20001C78012C0FD0012C0FDC022C02DC1D4A69
:103C30001D4B9A6470BD99001A481B4A8850013385
:103C40001F2BF8D9EFE70023FAE71848FFF770FCBD
:103C500005001748FFF76CFC023803789B007F2BA8
:103C600019DD80222900104800F0E4FB022CDCD191
:103C7000104B1A88B5231B029A4209D10E4B1A88A1
:103C80000E4B9A4204D10E4B1A880E4B9A42CCD05E
:103C90000020FDF7D7FF0C4B0C4A30210C48FDF7F4
:103CA000B3FFC046D53C00106C0B0020534400000D
:103CB0005346000054380000D83800004946000040
:103CC0009C3800005946000008690010AC690010DB
:103CD0006869001007B56046002800D100BE018861
:103CE0000A0A0230DF2AFAD1C9B2820804D3028854
:103CF00040880004104300E00068024A50500390DE
:103D000007BD00006C0B00200FB403BC0CBCF0B569
:103D10000124E407634000E0F0B50C0DCF0F661EF0
:103D20003605891B640503D3C943404200D30131E2
:103D3000640D03D0661CF60A07D0E41B00207F0048
:103D4000791C89078912803C24031D0DDF0F6E1E2C
:103D500036059B1B6D0503D3DB43524200D3013371
:103D60006D0D03D06E1CF60A07D0ED1B00227F00FC
:103D70007B1C9B079B12803D2D032F1B661B58D479
:103D8000A446202E46DA20371400BC401D00BD405A
:103D9000F24033412A4380185941CB0F05D0C94323
:103DA000C043002264425041514162464D0D28D12A
:103DB0000D0D07D100281FD0241940414941013A77
:103DC0000D0DF9D0640006D3013000D30131002C71
:103DD00001D140084000013A0BD4941CE40A04D1FC
:103DE00012051144DB071944F0BDD907204B1943D4
:103DF00000E0D9070020F0BD0029DDD1002CDBD187
:103E0000F0BD0132C6074008CD0728434908002EFF
:103E1000E1D0D9E73C2E29DA203E40371400BC40DF
:103E200000D00124F24014431A00BB401C43D317B6
:103E3000ACE7AC46202F08DA20360400B4400D0071
:103E4000B540F84039412843A5E73C2F0CDA203F24
:103E500040360400B44000D00124F8400443080078
:103E6000B1400C43C117EAE710001900002494E7A1
:103E70000000F07FF0B50C0D661E3605891BE60AC2
:103E80006405640D02D0651CED0A04D000200121F8
:103E90000905803C2403A4461C0D671E3F05DB1B5F
:103EA000E70A6405640D02D0651CED0A04D0002207
:103EB00001231B05803C24037740644497B484B2FB
:103EC00096B27443070C7E43150C6F4380B268436F
:103ED000361802D3012000043F183004350C0019B5
:103EE0007D41844688B29AB250430C0C62431F0C49
:103EF0007C438EB27E43921902D301263604A41964
:103F00001604170C3618674101BC81B29AB25143AE
:103F1000040C62431B0C5C4380B25843121802D35A
:103F20000120000424181004130C401863412D18BC
:103F30005E410020474106BC88B293B258430C0C46
:103F40006343120C544389B251435B1802D30121DD
:103F50000904641819041A0C091862416D185641B5
:103F60000020474118BCF902720D1143F0026A0D9E
:103F70001043ED020A0D03D16D1940414941013B47
:103F8000124E9B1B7600B3420ED26D0007D3013058
:103F9000002671416646354301D1400840001B05AB
:103FA000C918E4072144F0BD0BDA013306D1013012
:103FB00004D101314F0D01D04908F2E7E10700209B
:103FC000F0BD013631050020EBE70000FF030000E3
:103FD000F0B51C0D671E3F05DB1BE70A6405640D89
:103FE00002D0661CF60A04D0002201231B05803C87
:103FF0002403D0252D060026F6432E661E096E6684
:10400000CE0FF619B44649004F0D02D07E1CF60AB9
:1040100003D000200021403F3F033E1BB600B444C4
:10402000013F7F05C91B49082E6F013676089C02A7
:10403000950D25437543ED137543AD1301356D1093
:10404000F603761B0CB4CC02450D2C43A2B2B3B2DE
:104050005A43270C7B43350C6F43A4B26C431B19A6
:1040600002D3012424043F191C041D0CA4187D4113
:1040700024196D41009A91B2ACB26143170C7C4394
:104080002B0C5F4392B25A43A41802D301221204AC
:10409000BF182204230C52187B41019C6C431B194E
:1040A000520ED9010A434401A01A81B2B2B251435F
:1040B00003145A43360C734387B27743D617D21989
:1040C00000277E4136049B191704160C7F185E41A9
:1040D0007316ED18F301002680337541A90F06D140
:1040E0006400690AE8055B0A184309D22FE004223C
:1040F000944480337541A90AA8059B0A184326D326
:10410000404149412404009A019B0D005543641B22
:104110004343E41A95B286B27543170C7E43030CF1
:104120005F4392B25A43B61802D301221204BF1859
:104130003204330C52197B4152429C41002C02D470
:104140000022013051414008CA071043490802B01B
:104150006246D7079210084BD218084B9A4203D2F6
:1041600012058918C919F0BD0020002A01DC3900A8
:10417000F0BD01331905F5E7FD030000FE0700005F
:10418000624618CA944600291ADAC01861415B4693
:104190003B415C46B4405246FA40224344464D46B9
:1041A00062416B41904699462B46B3403D41FC40ED
:1041B0001C4352465B46A241AB4192469B46704728
:1041C000C01AA1414B463B414C46B4404246FA40DE
:1041D000224354465D4662416B4192469B462B46C4
:1041E000B3403D41FC401C4342464B46A241AB41DB
:1041F000904699467047002000217047002200B584
:10420000203200F004F8080000BD000000220B1569
:10421000F1D410B5944600F02FF81414013400DAEC
:104220000021CB17134C20476244343A0CD40C2A9B
:1042300007DA04009140904052422032D44021439A
:1042400010BDD843D94310BD203207D40C4694404A
:10425000524220321141D040204310BD0800C917FE
:10426000203203D452422032104110BD18001900F0
:1042700010BD0000294200100A0DCC0F531E1B0573
:10428000C91A520503D3C943404200D30131520D2C
:1042900003D0531CDB0A07D0121B00206400611CF2
:1042A00089078912803A1203014BD21A7047000025
:1042B000FF03000051434343C9188C46110C83B2DD
:1042C0004B4310B4040C614392B280B2504362433A
:1042D0001C041B0C001910BC59411304120CC0180B
:1042E000514161447047000070B513231D782A487E
:1042F000FFF71EF90400012D11D0012D09DDA31EC9
:104300001B789B007F2B40DD80222100234800F09A
:1043100091F82348FFF704F9224B186070BD54222E
:1043200001001E4800F086F81F4B1A881F4B9A4266
:104330001CD1A7239B011A881D4B9A4216D11D4BF5
:104340001A881D4B9A4211D11C4B1A8894239B0149
:104350009A420BD11A4B1A881A4B9A4206D11A4B21
:104360001A681A4B9A4201D1152307E01848FDF745
:1043700069FC99001748094A885001331F2BF8D966
:10438000144A064B1A62DA61B7E7134B134A42210B
:104390001348FDF739FCC046534600006C0C002062
:1043A0004C3300006C0D0020EE290000C40F00000B
:1043B000C20D0000962B0000C0B50000182B0000B5
:1043C000CC2A000010B50000FC2C000051ED8764E1
:1043D000C86E0010E5430010C0690010386A001074
:1043E000F469001007B56046002800D100BE0188BE
:1043F0000A0A0230DF2AFAD1C9B2820804D302883D
:1044000040880004104300E00068024A50500390C6
:1044100007BD00006C0C002001480421014B184727
:104420003004002041350010014B1B681847000084
:1044300030040020014B5B68184700003004002066
:10444000F8B506000D001700437C002B23D103684C
:10445000110028009847F8BD337C10E0022117486E
:1044600033689847601C0134BC4217DA002CF3DD36
:104470002B19013B1B780D3B5A425341DBB22A5D9D
:104480000A2AF0D1002BEED1A042E7DA211A28182F
:1044900033689847E2E700240020E5E7B84203DAF2
:1044A000391A281833689847002FD4DDED19013DDB
:1044B0002B780D3B5A4253413374CCE7C46A001049
:1044C00070B505000368002B16D00C4B1C6805E086
:1044D000291D2A682000FFF7B3FFE468002C09D0EB
:1044E0002368002BF9D0064B1B68002BF0D0A342A9
:1044F000F3D1EDE700232B6070BDC04628070020F4
:104500002C07002070B505000C000B68802B05D02F
:1045100023685A1C2260E418257170BD0800FFF75B
:10452000CFFFF5E710B582B0D0231B0600241C573F
:1045300001A9074801F0C0FA002806D1019B9C425E
:1045400003D0034801F0C8FA012002B010BDC046F4
:104550008004002010B5024801F096FA10BDC04654
:1045600080040020F0B585B001900D001600FFF723
:10457000D9FF07006B1C02D0164B1C6805E00198A0
:1045800001F04CFA0500F7E7E468002C18D0236826
:10459000002BF9D0104B1B68002B01D0A342F3D1A4
:1045A0002A0001992000FFF74BFF002EECD002AB50
:1045B000D91D0A230B7001222000FFF741FFE3E71A
:1045C000002F04D1681E8541E8B205B0F0BDFFF7A9
:1045D000C1FFF7E7280700202C0700200C4B1A68C2
:1045E0001300002B0BD0834202D01A00DB68F8E7DF
:1045F000002903D1DB68D3600023C3607047002922
:10460000FCD0002A01D0D060F8E7014B1860F5E734
:104610002807002010B5064B1C6800E0E468002C59
:1046200004D06368002BF9D09847F7E710BDC04667
:104630002807002070B5050001F0F0F90400012200
:1046400001002800FFF78EFFFFF7E4FF200070BD98
:1046500070B5A2B004000E00FFF764FF05008422CD
:10466000002101A8FFF7E0FE3300220001A908485D
:10467000FEF73EFF040001A8FFF722FFFFF7CAFF85
:10468000002D02D1200022B070BDFFF763FFF9E7D3
:10469000054500100FB400B583B004A901C901910C
:1046A000FFF7D6FF03B008BC04B0184710B500F000
:1046B0007FF810BDF0B583B0002606E06B469C1D68
:1046C00025700025002D1DD001368E4222DA124BB6
:1046D0001A68855D114BD3185C4263415B00104C36
:1046E0001B5FAB42EAD16B46DC1D0D232370002714
:1046F000002FE3D193699B06FCD423781360013724
:104700000134F5E793699B06FCD4237813600135E7
:104710000134D7E703B0F0BD5C0B00200080FCBF84
:10472000680B0020F0B583B0070000200BE0461CAA
:10473000381800246B46DD1D002C0FD06B46073364
:104740001B7803703000884204DA094B1A689369B9
:10475000DB06ECD5002809D003B0F0BD9369DB0679
:10476000FCD413682B7001340135E5E70338F3E717
:104770005C0B002070B515001C000B4B1860FCF79B
:1047800065F8002D0ADA002C03DB02212000FBF77C
:1047900035FF01210548FFF721FF70BD02212800E8
:1047A000FBF72CFFEFE7C0465C0B00204004002025
:1047B00010B5064B1B78064B1B78E1210123002224
:1047C00049020448FFF7D6FF10BDC046186F00101D
:1047D0001C6F0010004003400123084A1360084A80
:1047E0001360084B9A6801239343FAD1064B0122C8
:1047F0001A60054B1B68DB05FBD5704700E00040E5
:1048000000F0004000C0004000C004407F2303408F
:10481000C209580080184001014BC0187047C046BB
:104820003007002010B582B001AB00221A70803230
:104830005A70002408E001AB185DFFF7E7FF012381
:10484000C370002303740134012CF4D902B010BDED
:1048500010B5828B131C402A00D940239BB2164905
:104860000A68C260D3180B60990604D03F218B43BD
:10487000403311490B60104B19688B060FD10F4B59
:104880005A404B40802149018B420ED8837F9B06C2
:104890001A43A0231B061A4343681A6010BD084B35
:1048A000084A52210848FDF7AFF9084B054A542140
:1048B0000548FDF7A9F9C046300B00200000105054
:1048C0007C6B0010086B0010AC6B0010FC6B0010D0
:1048D00070B504007F200840CD09A170694269418C
:1048E0006170002822D10121E170012B20D0402AE3
:1048F00025D8A283A377012D25D0C3001C4A944656
:104900006344A360A36800221A60002821D0012D0F
:1049100026D00138C000174B9C4660446060237865
:10492000002B1AD12000FFF793FF16E00021DBE7F0
:1049300011498A42DDD911001048FDF783F91100B1
:104940000E48FDF77FF9C3000D4A94466344A36007
:10495000D8E7002363600B4BE3600123237070BD35
:104960000138C000084B9C4660446060D7E7C046F1
:10497000840010500C001050FF030000306C001039
:1049800080001050000110500800105070B5040055
:104990000D001600FFF73AFF33002A002100FFF751
:1049A00097FF70BDF0B5CE46474680B583B0244B27
:1049B0009B6D9846002701240AE0224B224ADA2107
:1049C0002248FDF721F94346A34398466400013786
:1049D0004346002B2FD01F2F2DD843461C42F5D025
:1049E000174BDB6D1C42E8D1194B9C657B080126F7
:1049F0003E4072425641F6B2FF221A40914655009F
:104A0000AD196D01134BED18280000F00BFA0028CA
:104A1000D9D04B465B009E1976010E4B9E19B28A87
:104A2000B178012300930023002000F0ADFB2800A3
:104A300000F042F9C7E703B00CBC90469946F0BDC0
:104A400000001150786C00101C6B0010AC6B001053
:104A5000003011503007002070B5244A9823D458F4
:104A6000E30314D40025E3061FD4A3040AD580234E
:104A70009B011D431D4B1B6DDB031BD51C4B802273
:104A800052021A65E3041BD4A54229D170BDFFF779
:104A9000C9FE01221749002000F05CFB144B802264
:104AA00092021A6580256D02DDE710231D43FFF792
:104AB00079FFDAE701220221002000F021FBDDE787
:104AC0000A4B00221A6080235B011D430132002142
:104AD000002000F029FB064B802212031A65D3E761
:104AE000290061400448FDF7ADF8C04600001150B0
:104AF0000030115000001050646C001070B50C00B4
:104B000015001E00FFF782FE33002A00210000F08E
:104B1000B9F970BD10B5002804D101210520FDF7B9
:104B200017FA10BDAA21034B034AFF310348FDF7D2
:104B30006BF8C046586C0010406B0010AC6B001056
:104B400010B5002804D1064B80225202DA6410BD51
:104B5000D021044B044AFF310448FDF755F8C04604
:104B600000201150586C0010506B0010AC6B0010FE
:104B700010B5041E25D100F077F815490520FDF782
:104B8000F7F98022D20000211248FFF74DFC124BAA
:104B9000124A1A60002240210020FFF7F7FE00228F
:104BA00040218020FFF7F2FE0D4B01221A64802283
:104BB0009205DA6490220B4999502000FFF7C0FF5C
:104BC00010BDC521084B094A49000948FDF71CF8EA
:104BD000594A001030070020300B0020800110508F
:104BE0000000115010300100586C0010346B0010A0
:104BF000AC6B001010B50C0000280DD1097962795A
:104C0000072313401B021943E2789207920FA07802
:104C1000FFF7BCFE012010BDF521034B034A4900FC
:104C20000348FCF7F1FFC046586C00105C6B0010A5
:104C3000AC6B001010B50C0011001A00002805D153
:104C400001232000FFF75AFF012010BDF221034B82
:104C5000034AFF310348FCF7D7FFC046586C0010E9
:104C60006C6B0010AC6B001010B580235B040D4A18
:104C700013600D4A13600D4B9A6880235B049343C5
:104C8000F9D10B4C9C2200212000FFF7CDFB8022A4
:104C9000520100210748FFF7C7FB0923636703336D
:104CA000A36710BD00E0004000F0004000C00040DD
:104CB000000011500000105000230374437443821D
:104CC0008382C3828361704710B5002902D0836854
:104CD0001B681940002A0FD0114353050CD5826878
:104CE00013685B050BD40B4B0B401360FFE7FFE72A
:104CF000FFE7FFE7FFE7FFE78368196010BD8378F0
:104D00007F211940DB099B00034A9A580348FCF7AE
:104D100099FFC046FFFBFFFF54040020B06C001059
:104D200070B50400C58A8022D2002A434378002B44
:104D30000CD0E378002B15D100210A4301214B4010
:104D4000E37000212000FFF7BFFF70BD818A8369F7
:104D50009C4661442A00C068FFF76CFB034A2A4363
:104D600092B2E6E780218901E7E7C0460084FFFFB1
:104D700070B504000E001500437C002B14D1658231
:104D80000023A382A28B131C3F2A00D840232A1C95
:104D900099B28D4200D91A1CE28201236374A66184
:104DA0002000FFF7BDFF70BDFFF786FFE7E70000BB
:104DB00070B5040083681B689D05AD0D4278002A1C
:104DC00013D11B040BD4838AEB1883826378002BE6
:104DD00004D0E38AAB4201D9A38A638270BD0D4B34
:104DE0000D4AEA210D48FCF70FFF1B040BD5808A02
:104DF000A3699C4660442A00E168FFF71BFBA38A75
:104E0000EB18A382E2E7064B034AF4210348FCF7C0
:104E1000FBFEC046306D0010846C0010506D001019
:104E2000A06D0010F8B50400457C002D19D0FFF7E7
:104E3000BFFF618AA28A8B1A9BB2A08B061C3F28F7
:104E400000D84026181CB7B2BB4200D9301CE08203
:104E500091420DD303D02000FFF762FF0025280008
:104E6000F8BD81787F231940034A0448FCF7EAFE25
:104E70000348FCF7E7FEC04654040020E06C001035
:104E80000C6D001010B50478002C04D0002B09D153
:104E9000FFF7C8FF10BD3A21044B054AFF31054812
:104EA000FCF7B2FEFFF764FFF4E7C046D06C0010D9
:104EB0009C6C0010506D001070B50500284B1878E0
:104EC000002800D070BD372200212648FFF7ACFA39
:104ED000254C2000FCF7F7FB244B1C60244C2000E1
:104EE0001C30FCF705FC200000F05AFD214B1C6033
:104EF000214B002B04D0214800E000BF204B18605C
:104F0000002410E0E31ADBB2002B07D15A00D318BB
:104F1000DA001C4B9B1802E02300F5E700231B6816
:104F200098470134E4B2154B1B785A1C94420BDAB3
:104F3000114A002AF0D0A342E4D962001219D1002C
:104F40000F4B1B685B18EAE72800FFF711FE2800EB
:104F5000FFF7E0FD024B01221A700120B2E7C046C4
:104F6000610B00206C06002024060020A40600200F
:104F70005C040020A806002000000000600B002058
:104F8000C0050020046E001010B54378032B34D008
:104F90002DD9042B61D0052B00D087E0544B1B7812
:104FA000DB072AD5524A137804218B431370514BE7
:104FB0001C68E269EFF3108172B61368002BFCD015
:104FC000BFF35F8F21620100200000F0B3FCE269B3
:104FD000236ABFF35F8F0021116083F310880028DC
:104FE0000BD1A82244494548FFF754FB05E0022BAA
:104FF0005CD13F4B1B78DB0700D410BD3C4B1A78CB
:1050000001218A431A701A7801318A431A700022EA
:105010005A701A7802318A431A70364B1C68E2695A
:10502000EFF3108172B61368002BFCD0BFF35F8FD3
:1050300021620100200000F07DFCE269236ABFF3D9
:105040005F8F0021116083F310880028D5D1A8223A
:1050500029492A48FFF71EFBCFE7254B1B78DB07C2
:10506000CBD5234A137804210B431370214B1C68C2
:10507000E269EFF3108172B61368002BFCD0BFF326
:105080005F8F21620100200000F054FCE269236A76
:10509000BFF35F8F0021116083F310880028ACD12B
:1050A000A82215491548FFF7F5FAA6E7114B1C6829
:1050B000E269EFF3108172B61368002BFCD0BFF3E6
:1050C0005F8F21620100200000F034FCE269236A56
:1050D000BFF35F8F0021116083F31088002800D098
:1050E0008BE7A82204490548FFF7D4FA85E7C046B4
:1050F0006C060020A8060020C06D00101C6E001079
:10510000F0B585B007000E00150001AC0A220021A1
:105110006B46981DFFF788F92770667029002000FC
:10512000FFF732FF05B0F0BDF0B585B007000E0007
:10513000150001AC0A2200216B46981DFFF774F997
:10514000277001236370267129002000FFF71CFFE0
:1051500005B0F0BDF0B585B007000E00150001AC3C
:105160000A2200216B46981DFFF75EF9277006237F
:1051700063700822310002A8FFF75CF929002000C3
:10518000FFF702FF05B0F0BDF0B5CE46474680B54B
:1051900085B08146884617001E000CAB1D7801AC17
:1051A000062200216B46981DFFF73EF94B462370FF
:1051B0000723637043462371A760667129002000AE
:1051C000FFF7E2FE05B00CBC90469946F0BD00002A
:1051D00070B5CB789B079B0F022B1DD042D8012BBB
:1051E00057D12D4B9B78022B0BD02C4A0C794D7943
:1051F00007232B401B022343934205DCFFF7FAFCF5
:1052000070BD8022D200F1E79122D20024492548C6
:10521000FFF740FA0020F3E71F4B9B78022B0ED0DC
:105220000A794C79072323401B021343402BE5D90D
:105230001D4A1B491B48FFF72DFA0020E0E70A79B9
:105240004C79053323401B02134380229200934282
:10525000D4D06F3AFF3AD20011491248FFF71AFA38
:105260000020CDE70C4B9B78022B0FD040220C790D
:105270004D7907232B401B0223439342BEDD0B4A8B
:1052800007490848FFF706FA0020B9E78022D20054
:10529000EDE70020B4E7C0466C060020FF030000E5
:1052A000E46D00101C6E0010940400009B040000CC
:1052B000F0B5CE4600B582B001900C0091461E00BC
:1052C000002515E0174A18491848FFF7E3F90027A9
:1052D000380002B004BC9146F0BD154A124913488B
:1052E000FFF7D8F9F4E7099A13702378E418013529
:1052F000A94514DD6378052BE4D1E3789B079B0F68
:10530000B342DFD121000198FFF762FF071EE4D00E
:10531000A378DA09012AE6D0089A1370E5E7012795
:10532000D6E7C0465B040000D06D00101C6E001074
:105330005C040000F0B5C64600B582B001937F253D
:105340000D40CE096F00174CE419A419203464797C
:10535000E4071DD46F00134CE419A41920346379B9
:105360000127BC4667463B436371019BFFF762FC24
:10537000002813D16D000B4B5D19AE1920367379DF
:10538000012293437371737903329343737105E080
:10539000054A06490648FFF77DF9002002B004BC23
:1053A0009046F0BD6C060020E1040000F46D001092
:1053B0001C6E0010F8B50400124B9F89DE89B91BE2
:1053C00089B20B1C402900D940239DB20D4B1B789C
:1053D0005BB2002B08DB0021B74211D00A4A2B0038
:1053E0002000FFF7A7FFF8BDB74201D18021F3E706
:1053F000044B99682A000448FFF71CF88021EBE76A
:105400000022ECE7C40500202C06002070B5060041
:105410000D000B4C08222000FFF70CF80023A360BE
:10542000E381A3810023EB56002B06DB80210023C0
:1054300000223000FFF77EFF70BD0021F7E7C04675
:10544000C4050020F0B583B001900E0017001C00C9
:10545000224D08222800FEF7EDFFAF600023EB810C
:10546000B279F3791B0213431A1CA34200D9221C00
:1054700091B21A4B9A81B279F3791B02134315D07A
:10548000002901D0002F0AD00198FFF793FF041ED6
:1054900018D1792212491348FFF7FCF812E0732261
:1054A0000F491048FFF7F6F800240BE00023F356ED
:1054B000002B0ADB8021002300220198FFF73AFF2E
:1054C000041E04D0200003B0F0BD0021F3E77E22CB
:1054D00003490448FFF7DEF8F4E7C046C40500209E
:1054E000346E00101C6E001010B54C2200210248D2
:1054F000FEF79AFF10BDC046D805002010B5002069
:10550000FFF7F2FF10BD0000F0B583B005000E00FC
:105510004B79032B03D00024200003B0F0BD0B799E
:10552000DC00E41AA4B21234A4B2944212D80023CC
:10553000002B16D00027002F20D031787118B964C5
:105540004B78212B21D0D1222A492B48FFF7A2F8F2
:105550000024E1E7BD2227492748FFF79BF80024F4
:10556000DAE74C215943254A52185278002A02D0D2
:105570000133DBB2DCE7214F7F18DCE7CA221D498B
:105580001D48FFF787F80024C6E70B78C918327961
:105590007B1C0193BB1C009303232800FFF788FEAC
:1055A00000281DD0B379012B21D001233B71B378A2
:1055B0003B70B81DBB6CD91D0222FEF73BFFB978CA
:1055C0000029A9D03A00283220232800FFF7B2FE94
:1055D0000028A1D1E4220A490A48FFF75BF89BE7BB
:1055E000D52204490448FFF755F8002494E7F379DD
:1055F000FB70DAE7846E00101C6E0010D8050020E6
:10560000786E0010B86E0010F0B583B0040015007D
:1056100012781F231340012B02D0002003B0F0BDED
:105620002E790020002812D0FF20002800D0EAE0C8
:10563000060060231A4035D1002900D0E5E0EA7861
:105640006B78062B0CD0062B1AD00020E6E74C23F3
:105650004343734FDB5D9E42E7D00130C0B2E1E7C8
:10566000212AF0D1463343436D4EF618B26C002A1E
:1056700000D1CCE0137829002000FFF7E3FECDE74E
:10568000222A01D00020C9E7FAF7B4FF02004C2318
:105690007343634EF618F38829002000FFF7D2FE0B
:1056A0000120BBE7202A01D00020B7E76B780B2B45
:1056B00000D9AEE09B005B4AD3589F46002901D039
:1056C0000120ABE7AB78E978090219430A0AC9B2AD
:1056D0004C235E430836524B9E19AF79EB791B027F
:1056E0003B4300933300FAF74FFF002807D18E2287
:1056F00052004D494D48FEF7CDFF00208EE70300D4
:10570000320029002000FFF79DFE012086E70029D6
:1057100012D1AA79EB791B021343202B01D9002067
:105720007CE74C22424328323D498A182900200058
:10573000FFF788FE012071E7022901D001206DE703
:10574000AB78E978090219430A0AC9B24C234343EA
:105750002833334CE318AE79EC79240234430094B7
:10576000FAF714FF012059E7002954D1E9784C23B6
:1057700043432B4EF61871712D4B002B04D000E0E3
:1057800000BF002800D149E729002000FFF73EFEB6
:10579000012043E7002901D001203FE74C22564376
:1057A0001F4A92190532012329002000FFF74AFE03
:1057B000012033E7002901D001202FE74C22564376
:1057C000174A92190432012329002000FFF73AFEFC
:1057D000012023E7002903D0022907D001201DE77B
:1057E00029002000FFF712FE012017E7A9784C23BB
:1057F00043430B4EF61831710E4B002B0DD000E0D9
:1058000000BF01200AE7002008E7012006E700208A
:1058100004E7002002E7012000E70120FEE6C04681
:10582000D8050020486E0010906E00101C6E00100D
:10583000000000000000000070B582B00500244C9C
:10584000002000280BD0002816D162788A421BD095
:10585000A2788A4222D00124200002B070BD4C24DC
:1058600044431B4A1419A2788A42ECD062788A42D7
:10587000E9D00130C0B2E4E7BA2252001549164817
:10588000FEF708FF0024E7E7144A002A1ED0210093
:105890000831DAB2FAF770FE0124DDE72600283677
:1058A0009BB20093330000220021FAF76FFEA1782B
:1058B000202332002800FFF73DFD041ECCD1C12279
:1058C000520004490448FEF7E5FEC5E70124C3E79A
:1058D000D8050020A86E00101C6E0010790500107D
:1058E00010B50020FFF7E8FA041E01D0200010BD1B
:1058F000292202490248FEF7CDFEF7E7CC6E0010E0
:105900001C6E001010B55318994205DC8489A3421F
:1059100002DC891888B204E0891889B24089081825
:1059200080B210BD838801E0C91A89B28B42FBD9CD
:105930000800704770B504000E004069002803D0CD
:105940000121494200F0C0F8E589ADB2228A92B245
:10595000AB1A9BB2AA4202D962899B1A9BB2A28857
:105960009A4202D1207A002817D029002000FFF7A0
:10597000D9FFE288504323689C4660443100FEF71B
:1059800059FD012229002000FFF7BCFFE08160697A
:10599000002803D000F078F8012070BD0120FCE75A
:1059A00010B504004069002803D00121494200F0ED
:1059B0008BF8A069002803D00121494200F084F847
:1059C0000023E3812382A3885B00013B9BB2A38178
:1059D000DB4363816069002801D000F055F8A069BD
:1059E000002801D000F050F8012010BD10B519209A
:1059F000FAF74EFED0231B06802292045A62054815
:105A0000054B1860E121012300224902FEF7B2FE96
:105A100010BDC04600400340580B002010B50400E4
:105A200083070AD00378002B23D0032202E00378F7
:105A3000002B1CD001301042F9D102680E4B0F49E7
:105A4000D31893430B420FD1043002680A4BD3188A
:105A500093430B4208D104300268074BD318934399
:105A60000B42F1D000E001300378002BFBD1001B8A
:105A700010BD0020FCE7C046FFFEFEFE8080808057
:105A8000F8B5C0460000000001B40248844601BCDD
:105A9000604700BFA902002001B40248844601BC4F
:105AA000604700BF3D03002001B40248844601BCAA
:105AB000604700BF3D03002001B40248844601BC9A
:105AC000604700BF5501002001B40248844601BC74
:105AD000604700BF3D02002001B40248844601BC7B
